{
  "abi": [
    {
      "inputs": [
        {
          "internalType": "string",
          "name": "_name",
          "type": "string"
        },
        {
          "internalType": "string",
          "name": "_symbol",
          "type": "string"
        },
        {
          "internalType": "uint8",
          "name": "_decimals",
          "type": "uint8"
        }
      ],
      "stateMutability": "nonpayable",
      "type": "constructor"
    },
    {
      "inputs": [
        {
          "internalType": "address",
          "name": "",
          "type": "address"
        },
        {
          "internalType": "address",
          "name": "",
          "type": "address"
        }
      ],
      "name": "allowances",
      "outputs": [
        {
          "internalType": "uint256",
          "name": "",
          "type": "uint256"
        }
      ],
      "stateMutability": "view",
      "type": "function"
    },
    {
      "inputs": [
        {
          "internalType": "address",
          "name": "spender",
          "type": "address"
        },
        {
          "internalType": "uint256",
          "name": "amount",
          "type": "uint256"
        }
      ],
      "name": "approve",
      "outputs": [
        {
          "internalType": "bool",
          "name": "",
          "type": "bool"
        }
      ],
      "stateMutability": "nonpayable",
      "type": "function"
    },
    {
      "inputs": [
        {
          "internalType": "address",
          "name": "",
          "type": "address"
        }
      ],
      "name": "balanceOf",
      "outputs": [
        {
          "internalType": "uint256",
          "name": "",
          "type": "uint256"
        }
      ],
      "stateMutability": "view",
      "type": "function"
    },
    {
      "inputs": [],
      "name": "decimals",
      "outputs": [
        {
          "internalType": "uint8",
          "name": "",
          "type": "uint8"
        }
      ],
      "stateMutability": "view",
      "type": "function"
    },
    {
      "inputs": [
        {
          "internalType": "address",
          "name": "to",
          "type": "address"
        },
        {
          "internalType": "uint256",
          "name": "amount",
          "type": "uint256"
        }
      ],
      "name": "mint",
      "outputs": [],
      "stateMutability": "nonpayable",
      "type": "function"
    },
    {
      "inputs": [],
      "name": "name",
      "outputs": [
        {
          "internalType": "string",
          "name": "",
          "type": "string"
        }
      ],
      "stateMutability": "view",
      "type": "function"
    },
    {
      "inputs": [],
      "name": "symbol",
      "outputs": [
        {
          "internalType": "string",
          "name": "",
          "type": "string"
        }
      ],
      "stateMutability": "view",
      "type": "function"
    },
    {
      "inputs": [],
      "name": "totalSupply",
      "outputs": [
        {
          "internalType": "uint256",
          "name": "",
          "type": "uint256"
        }
      ],
      "stateMutability": "view",
      "type": "function"
    },
    {
      "inputs": [
        {
          "internalType": "address",
          "name": "to",
          "type": "address"
        },
        {
          "internalType": "uint256",
          "name": "amount",
          "type": "uint256"
        }
      ],
      "name": "transfer",
      "outputs": [
        {
          "internalType": "bool",
          "name": "",
          "type": "bool"
        }
      ],
      "stateMutability": "nonpayable",
      "type": "function"
    },
    {
      "inputs": [
        {
          "internalType": "address",
          "name": "from",
          "type": "address"
        },
        {
          "internalType": "address",
          "name": "to",
          "type": "address"
        },
        {
          "internalType": "uint256",
          "name": "amount",
          "type": "uint256"
        }
      ],
      "name": "transferFrom",
      "outputs": [
        {
          "internalType": "bool",
          "name": "",
          "type": "bool"
        }
      ],
      "stateMutability": "nonpayable",
      "type": "function"
    }
  ],
  "bytecode": {
    "object": "0x608060405234801561001057600080fd5b5060405161087b38038061087b83398101604081905261002f91610120565b600061003b8482610226565b5060016100488382610226565b506002805460ff191660ff92909216919091179055506102e59050565b634e487b7160e01b600052604160045260246000fd5b600082601f83011261008c57600080fd5b81516001600160401b03808211156100a6576100a6610065565b604051601f8301601f19908116603f011681019082821181831017156100ce576100ce610065565b816040528381526020925086838588010111156100ea57600080fd5b600091505b8382101561010c57858201830151818301840152908201906100ef565b600093810190920192909252949350505050565b60008060006060848603121561013557600080fd5b83516001600160401b038082111561014c57600080fd5b6101588783880161007b565b9450602086015191508082111561016e57600080fd5b5061017b8682870161007b565b925050604084015160ff8116811461019257600080fd5b809150509250925092565b600181811c908216806101b157607f821691505b6020821081036101d157634e487b7160e01b600052602260045260246000fd5b50919050565b601f82111561022157600081815260208120601f850160051c810160208610156101fe5750805b601f850160051c820191505b8181101561021d5782815560010161020a565b5050505b505050565b81516001600160401b0381111561023f5761023f610065565b6102538161024d845461019d565b846101d7565b602080601f83116001811461028857600084156102705750858301515b600019600386901b1c1916600185901b17855561021d565b600085815260208120601f198616915b828110156102b757888601518255948401946001909101908401610298565b50858210156102d55787850151600019600388901b60f8161c191681555b5050505050600190811b01905550565b610587806102f46000396000f3fe608060405234801561001057600080fd5b506004361061009e5760003560e01c806340c10f191161006657806340c10f191461012d57806355b6ed5c1461014257806370a082311461016d57806395d89b411461018d578063a9059cbb1461019557600080fd5b806306fdde03146100a3578063095ea7b3146100c157806318160ddd146100e457806323b872dd146100fb578063313ce5671461010e575b600080fd5b6100ab6101a8565b6040516100b891906103b6565b60405180910390f35b6100d46100cf366004610420565b610236565b60405190151581526020016100b8565b6100ed60035481565b6040519081526020016100b8565b6100d461010936600461044a565b610265565b60025461011b9060ff1681565b60405160ff90911681526020016100b8565b61014061013b366004610420565b610303565b005b6100ed610150366004610486565b600560209081526000928352604080842090915290825290205481565b6100ed61017b3660046104b9565b60046020526000908152604090205481565b6100ab61034d565b6100d46101a3366004610420565b61035a565b600080546101b5906104db565b80601f01602080910402602001604051908101604052809291908181526020018280546101e1906104db565b801561022e5780601f106102035761010080835404028352916020019161022e565b820191906000526020600020905b81548152906001019060200180831161021157829003601f168201915b505050505081565b3360009081526005602090815260408083206001600160a01b0386168452909152902081905560015b92915050565b6001600160a01b03831660009081526004602052604081208054839190839061028f90849061052b565b90915550506001600160a01b038316600090815260046020526040812080548492906102bc90849061053e565b90915550506001600160a01b0384166000908152600560209081526040808320338452909152812080548492906102f490849061052b565b90915550600195945050505050565b6001600160a01b0382166000908152600460205260408120805483929061032b90849061053e565b925050819055508060036000828254610344919061053e565b90915550505050565b600180546101b5906104db565b3360009081526004602052604081208054839190839061037b90849061052b565b90915550506001600160a01b038316600090815260046020526040812080548492906103a890849061053e565b909155506001949350505050565b600060208083528351808285015260005b818110156103e3578581018301518582016040015282016103c7565b506000604082860101526040601f19601f8301168501019250505092915050565b80356001600160a01b038116811461041b57600080fd5b919050565b6000806040838503121561043357600080fd5b61043c83610404565b946020939093013593505050565b60008060006060848603121561045f57600080fd5b61046884610404565b925061047660208501610404565b9150604084013590509250925092565b6000806040838503121561049957600080fd5b6104a283610404565b91506104b060208401610404565b90509250929050565b6000602082840312156104cb57600080fd5b6104d482610404565b9392505050565b600181811c908216806104ef57607f821691505b60208210810361050f57634e487b7160e01b600052602260045260246000fd5b50919050565b634e487b7160e01b600052601160045260246000fd5b8181038181111561025f5761025f610515565b8082018082111561025f5761025f61051556fea2646970667358221220be4d4a1adcddf18fe28c1eedc4ef70514c483fb365ab00674d182c4f9883f7a864736f6c63430008150033",
    "linkReferences": {}
  },
  "methodIdentifiers": {
    "allowances(address,address)": "55b6ed5c",
    "approve(address,uint256)": "095ea7b3",
    "balanceOf(address)": "70a08231",
    "decimals()": "313ce567",
    "mint(address,uint256)": "40c10f19",
    "name()": "06fdde03",
    "symbol()": "95d89b41",
    "totalSupply()": "18160ddd",
    "transfer(address,uint256)": "a9059cbb",
    "transferFrom(address,address,uint256)": "23b872dd"
  },
  "id": 15
}