{
  "abi": [
    {
      "inputs": [],
      "payable": false,
      "stateMutability": "nonpayable",
      "type": "constructor"
    },
    {
      "anonymous": false,
      "inputs": [
        {
          "indexed": false,
          "internalType": "uint256",
          "name": "error",
          "type": "uint256"
        },
        {
          "indexed": false,
          "internalType": "uint256",
          "name": "info",
          "type": "uint256"
        },
        {
          "indexed": false,
          "internalType": "uint256",
          "name": "detail",
          "type": "uint256"
        }
      ],
      "name": "Failure",
      "type": "event"
    },
    {
      "anonymous": false,
      "inputs": [
        {
          "indexed": false,
          "internalType": "address",
          "name": "oldAdmin",
          "type": "address"
        },
        {
          "indexed": false,
          "internalType": "address",
          "name": "newAdmin",
          "type": "address"
        }
      ],
      "name": "NewAdmin",
      "type": "event"
    },
    {
      "anonymous": false,
      "inputs": [
        {
          "indexed": false,
          "internalType": "address",
          "name": "oldImplementation",
          "type": "address"
        },
        {
          "indexed": false,
          "internalType": "address",
          "name": "newImplementation",
          "type": "address"
        }
      ],
      "name": "NewImplementation",
      "type": "event"
    },
    {
      "anonymous": false,
      "inputs": [
        {
          "indexed": false,
          "internalType": "address",
          "name": "oldPendingAdmin",
          "type": "address"
        },
        {
          "indexed": false,
          "internalType": "address",
          "name": "newPendingAdmin",
          "type": "address"
        }
      ],
      "name": "NewPendingAdmin",
      "type": "event"
    },
    {
      "anonymous": false,
      "inputs": [
        {
          "indexed": false,
          "internalType": "address",
          "name": "oldPendingImplementation",
          "type": "address"
        },
        {
          "indexed": false,
          "internalType": "address",
          "name": "newPendingImplementation",
          "type": "address"
        }
      ],
      "name": "NewPendingImplementation",
      "type": "event"
    },
    {
      "payable": true,
      "stateMutability": "payable",
      "type": "fallback"
    },
    {
      "constant": false,
      "inputs": [],
      "name": "_acceptAdmin",
      "outputs": [
        {
          "internalType": "uint256",
          "name": "",
          "type": "uint256"
        }
      ],
      "payable": false,
      "stateMutability": "nonpayable",
      "type": "function"
    },
    {
      "constant": false,
      "inputs": [],
      "name": "_acceptImplementation",
      "outputs": [
        {
          "internalType": "uint256",
          "name": "",
          "type": "uint256"
        }
      ],
      "payable": false,
      "stateMutability": "nonpayable",
      "type": "function"
    },
    {
      "constant": false,
      "inputs": [
        {
          "internalType": "address",
          "name": "newPendingAdmin",
          "type": "address"
        }
      ],
      "name": "_setPendingAdmin",
      "outputs": [
        {
          "internalType": "uint256",
          "name": "",
          "type": "uint256"
        }
      ],
      "payable": false,
      "stateMutability": "nonpayable",
      "type": "function"
    },
    {
      "constant": false,
      "inputs": [
        {
          "internalType": "address",
          "name": "newPendingImplementation",
          "type": "address"
        }
      ],
      "name": "_setPendingImplementation",
      "outputs": [
        {
          "internalType": "uint256",
          "name": "",
          "type": "uint256"
        }
      ],
      "payable": false,
      "stateMutability": "nonpayable",
      "type": "function"
    },
    {
      "constant": true,
      "inputs": [],
      "name": "admin",
      "outputs": [
        {
          "internalType": "address",
          "name": "",
          "type": "address"
        }
      ],
      "payable": false,
      "stateMutability": "view",
      "type": "function"
    },
    {
      "constant": true,
      "inputs": [],
      "name": "comptrollerImplementation",
      "outputs": [
        {
          "internalType": "address",
          "name": "",
          "type": "address"
        }
      ],
      "payable": false,
      "stateMutability": "view",
      "type": "function"
    },
    {
      "constant": true,
      "inputs": [],
      "name": "pendingAdmin",
      "outputs": [
        {
          "internalType": "address",
          "name": "",
          "type": "address"
        }
      ],
      "payable": false,
      "stateMutability": "view",
      "type": "function"
    },
    {
      "constant": true,
      "inputs": [],
      "name": "pendingComptrollerImplementation",
      "outputs": [
        {
          "internalType": "address",
          "name": "",
          "type": "address"
        }
      ],
      "payable": false,
      "stateMutability": "view",
      "type": "function"
    }
  ],
  "bytecode": {
    "object": "0x608060405234801561001057600080fd5b50600080546001600160a01b031916331790556105e4806100326000396000f3fe60806040526004361061007b5760003560e01c8063dcfbc0c71161004e578063dcfbc0c71461019e578063e992a041146101b3578063e9c714f2146101e6578063f851a440146101fb5761007b565b806326782247146100fe578063b71d1a0c1461012f578063bb82aa5e14610174578063c1e8033414610189575b6002546040516000916001600160a01b031690829036908083838082843760405192019450600093509091505080830381855af49150503d80600081146100de576040519150601f19603f3d011682016040523d82523d6000602084013e6100e3565b606091505b505090506040513d6000823e8180156100fa573d82f35b3d82fd5b34801561010a57600080fd5b50610113610210565b604080516001600160a01b039092168252519081900360200190f35b34801561013b57600080fd5b506101626004803603602081101561015257600080fd5b50356001600160a01b031661021f565b60408051918252519081900360200190f35b34801561018057600080fd5b506101136102b0565b34801561019557600080fd5b506101626102bf565b3480156101aa57600080fd5b506101136103ba565b3480156101bf57600080fd5b50610162600480360360208110156101d657600080fd5b50356001600160a01b03166103c9565b3480156101f257600080fd5b5061016261044d565b34801561020757600080fd5b50610113610533565b6001546001600160a01b031681565b600080546001600160a01b031633146102455761023e6001600e610542565b90506102ab565b600180546001600160a01b038481166001600160a01b0319831681179093556040805191909216808252602082019390935281517fca4f2f25d0898edd99413412fb94012f9e54ec8142f9b093e7720646a95b16a9929181900390910190a160005b9150505b919050565b6002546001600160a01b031681565b6003546000906001600160a01b0316331415806102e557506003546001600160a01b0316155b156102fc576102f5600180610542565b90506103b7565b60028054600380546001600160a01b038082166001600160a01b031980861682179687905590921690925560408051938316808552949092166020840152815190927fd604de94d45953f9138079ec1b82d533cb2160c906d1076d1f7ed54befbca97a92908290030190a1600354604080516001600160a01b038085168252909216602083015280517fe945ccee5d701fc83f9b8aa8ca94ea4219ec1fcbd4f4cab4f0ea57c5c3e1d8159281900390910190a160005b925050505b90565b6003546001600160a01b031681565b600080546001600160a01b031633146103e85761023e6001600f610542565b600380546001600160a01b038481166001600160a01b0319831617928390556040805192821680845293909116602083015280517fe945ccee5d701fc83f9b8aa8ca94ea4219ec1fcbd4f4cab4f0ea57c5c3e1d8159281900390910190a160006102a7565b6001546000906001600160a01b031633141580610468575033155b15610479576102f560016000610542565b60008054600180546001600160a01b038082166001600160a01b031980861682179687905590921690925560408051938316808552949092166020840152815190927ff9ffabca9c8276e99321725bcb43fb076a6c66a54b7f21c4e8146d8519b417dc92908290030190a1600154604080516001600160a01b038085168252909216602083015280517fca4f2f25d0898edd99413412fb94012f9e54ec8142f9b093e7720646a95b16a99281900390910190a160006103b2565b6000546001600160a01b031681565b60007f45b96fe442630264581b197e84bbada861235052c5a1aadfff9ea4e40a969aa083601181111561057157fe5b83601381111561057d57fe5b604080519283526020830191909152600082820152519081900360600190a18260118111156105a857fe5b939250505056fea265627a7a72315820148c7b8d942be4d50d2b43b9aafcc992c4c0ebb50bef8f058091c1be8cf62a7764736f6c63430005100032",
    "linkReferences": {}
  },
  "methodIdentifiers": {
    "_acceptAdmin()": "e9c714f2",
    "_acceptImplementation()": "c1e80334",
    "_setPendingAdmin(address)": "b71d1a0c",
    "_setPendingImplementation(address)": "e992a041",
    "admin()": "f851a440",
    "comptrollerImplementation()": "bb82aa5e",
    "pendingAdmin()": "26782247",
    "pendingComptrollerImplementation()": "dcfbc0c7"
  },
  "id": 25
}