{
  "abi": [
    {
      "inputs": [
        {
          "internalType": "address",
          "name": "account",
          "type": "address"
        }
      ],
      "payable": false,
      "stateMutability": "nonpayable",
      "type": "constructor"
    },
    {
      "anonymous": false,
      "inputs": [
        {
          "indexed": true,
          "internalType": "address",
          "name": "owner",
          "type": "address"
        },
        {
          "indexed": true,
          "internalType": "address",
          "name": "spender",
          "type": "address"
        },
        {
          "indexed": false,
          "internalType": "uint256",
          "name": "amount",
          "type": "uint256"
        }
      ],
      "name": "Approval",
      "type": "event"
    },
    {
      "anonymous": false,
      "inputs": [
        {
          "indexed": true,
          "internalType": "address",
          "name": "delegator",
          "type": "address"
        },
        {
          "indexed": true,
          "internalType": "address",
          "name": "fromDelegate",
          "type": "address"
        },
        {
          "indexed": true,
          "internalType": "address",
          "name": "toDelegate",
          "type": "address"
        }
      ],
      "name": "DelegateChanged",
      "type": "event"
    },
    {
      "anonymous": false,
      "inputs": [
        {
          "indexed": true,
          "internalType": "address",
          "name": "delegate",
          "type": "address"
        },
        {
          "indexed": false,
          "internalType": "uint256",
          "name": "previousBalance",
          "type": "uint256"
        },
        {
          "indexed": false,
          "internalType": "uint256",
          "name": "newBalance",
          "type": "uint256"
        }
      ],
      "name": "DelegateVotesChanged",
      "type": "event"
    },
    {
      "anonymous": false,
      "inputs": [
        {
          "indexed": true,
          "internalType": "address",
          "name": "from",
          "type": "address"
        },
        {
          "indexed": true,
          "internalType": "address",
          "name": "to",
          "type": "address"
        },
        {
          "indexed": false,
          "internalType": "uint256",
          "name": "amount",
          "type": "uint256"
        }
      ],
      "name": "Transfer",
      "type": "event"
    },
    {
      "constant": true,
      "inputs": [],
      "name": "DELEGATION_TYPEHASH",
      "outputs": [
        {
          "internalType": "bytes32",
          "name": "",
          "type": "bytes32"
        }
      ],
      "payable": false,
      "stateMutability": "view",
      "type": "function"
    },
    {
      "constant": true,
      "inputs": [],
      "name": "DOMAIN_TYPEHASH",
      "outputs": [
        {
          "internalType": "bytes32",
          "name": "",
          "type": "bytes32"
        }
      ],
      "payable": false,
      "stateMutability": "view",
      "type": "function"
    },
    {
      "constant": true,
      "inputs": [
        {
          "internalType": "address",
          "name": "account",
          "type": "address"
        },
        {
          "internalType": "address",
          "name": "spender",
          "type": "address"
        }
      ],
      "name": "allowance",
      "outputs": [
        {
          "internalType": "uint256",
          "name": "",
          "type": "uint256"
        }
      ],
      "payable": false,
      "stateMutability": "view",
      "type": "function"
    },
    {
      "constant": false,
      "inputs": [
        {
          "internalType": "address",
          "name": "spender",
          "type": "address"
        },
        {
          "internalType": "uint256",
          "name": "rawAmount",
          "type": "uint256"
        }
      ],
      "name": "approve",
      "outputs": [
        {
          "internalType": "bool",
          "name": "",
          "type": "bool"
        }
      ],
      "payable": false,
      "stateMutability": "nonpayable",
      "type": "function"
    },
    {
      "constant": true,
      "inputs": [
        {
          "internalType": "address",
          "name": "account",
          "type": "address"
        }
      ],
      "name": "balanceOf",
      "outputs": [
        {
          "internalType": "uint256",
          "name": "",
          "type": "uint256"
        }
      ],
      "payable": false,
      "stateMutability": "view",
      "type": "function"
    },
    {
      "constant": true,
      "inputs": [
        {
          "internalType": "address",
          "name": "",
          "type": "address"
        },
        {
          "internalType": "uint32",
          "name": "",
          "type": "uint32"
        }
      ],
      "name": "checkpoints",
      "outputs": [
        {
          "internalType": "uint32",
          "name": "fromBlock",
          "type": "uint32"
        },
        {
          "internalType": "uint96",
          "name": "votes",
          "type": "uint96"
        }
      ],
      "payable": false,
      "stateMutability": "view",
      "type": "function"
    },
    {
      "constant": true,
      "inputs": [],
      "name": "decimals",
      "outputs": [
        {
          "internalType": "uint8",
          "name": "",
          "type": "uint8"
        }
      ],
      "payable": false,
      "stateMutability": "view",
      "type": "function"
    },
    {
      "constant": false,
      "inputs": [
        {
          "internalType": "address",
          "name": "delegatee",
          "type": "address"
        }
      ],
      "name": "delegate",
      "outputs": [],
      "payable": false,
      "stateMutability": "nonpayable",
      "type": "function"
    },
    {
      "constant": false,
      "inputs": [
        {
          "internalType": "address",
          "name": "delegatee",
          "type": "address"
        },
        {
          "internalType": "uint256",
          "name": "nonce",
          "type": "uint256"
        },
        {
          "internalType": "uint256",
          "name": "expiry",
          "type": "uint256"
        },
        {
          "internalType": "uint8",
          "name": "v",
          "type": "uint8"
        },
        {
          "internalType": "bytes32",
          "name": "r",
          "type": "bytes32"
        },
        {
          "internalType": "bytes32",
          "name": "s",
          "type": "bytes32"
        }
      ],
      "name": "delegateBySig",
      "outputs": [],
      "payable": false,
      "stateMutability": "nonpayable",
      "type": "function"
    },
    {
      "constant": true,
      "inputs": [
        {
          "internalType": "address",
          "name": "",
          "type": "address"
        }
      ],
      "name": "delegates",
      "outputs": [
        {
          "internalType": "address",
          "name": "",
          "type": "address"
        }
      ],
      "payable": false,
      "stateMutability": "view",
      "type": "function"
    },
    {
      "constant": true,
      "inputs": [
        {
          "internalType": "address",
          "name": "account",
          "type": "address"
        }
      ],
      "name": "getCurrentVotes",
      "outputs": [
        {
          "internalType": "uint96",
          "name": "",
          "type": "uint96"
        }
      ],
      "payable": false,
      "stateMutability": "view",
      "type": "function"
    },
    {
      "constant": true,
      "inputs": [
        {
          "internalType": "address",
          "name": "account",
          "type": "address"
        },
        {
          "internalType": "uint256",
          "name": "blockNumber",
          "type": "uint256"
        }
      ],
      "name": "getPriorVotes",
      "outputs": [
        {
          "internalType": "uint96",
          "name": "",
          "type": "uint96"
        }
      ],
      "payable": false,
      "stateMutability": "view",
      "type": "function"
    },
    {
      "constant": true,
      "inputs": [],
      "name": "name",
      "outputs": [
        {
          "internalType": "string",
          "name": "",
          "type": "string"
        }
      ],
      "payable": false,
      "stateMutability": "view",
      "type": "function"
    },
    {
      "constant": true,
      "inputs": [
        {
          "internalType": "address",
          "name": "",
          "type": "address"
        }
      ],
      "name": "nonces",
      "outputs": [
        {
          "internalType": "uint256",
          "name": "",
          "type": "uint256"
        }
      ],
      "payable": false,
      "stateMutability": "view",
      "type": "function"
    },
    {
      "constant": true,
      "inputs": [
        {
          "internalType": "address",
          "name": "",
          "type": "address"
        }
      ],
      "name": "numCheckpoints",
      "outputs": [
        {
          "internalType": "uint32",
          "name": "",
          "type": "uint32"
        }
      ],
      "payable": false,
      "stateMutability": "view",
      "type": "function"
    },
    {
      "constant": true,
      "inputs": [],
      "name": "symbol",
      "outputs": [
        {
          "internalType": "string",
          "name": "",
          "type": "string"
        }
      ],
      "payable": false,
      "stateMutability": "view",
      "type": "function"
    },
    {
      "constant": true,
      "inputs": [],
      "name": "totalSupply",
      "outputs": [
        {
          "internalType": "uint256",
          "name": "",
          "type": "uint256"
        }
      ],
      "payable": false,
      "stateMutability": "view",
      "type": "function"
    },
    {
      "constant": false,
      "inputs": [
        {
          "internalType": "address",
          "name": "dst",
          "type": "address"
        },
        {
          "internalType": "uint256",
          "name": "rawAmount",
          "type": "uint256"
        }
      ],
      "name": "transfer",
      "outputs": [
        {
          "internalType": "bool",
          "name": "",
          "type": "bool"
        }
      ],
      "payable": false,
      "stateMutability": "nonpayable",
      "type": "function"
    },
    {
      "constant": false,
      "inputs": [
        {
          "internalType": "address",
          "name": "src",
          "type": "address"
        },
        {
          "internalType": "address",
          "name": "dst",
          "type": "address"
        },
        {
          "internalType": "uint256",
          "name": "rawAmount",
          "type": "uint256"
        }
      ],
      "name": "transferFrom",
      "outputs": [
        {
          "internalType": "bool",
          "name": "",
          "type": "bool"
        }
      ],
      "payable": false,
      "stateMutability": "nonpayable",
      "type": "function"
    }
  ],
  "bytecode": {
    "object": "0x60806040523480156200001157600080fd5b5060405162001bd038038062001bd08339810160408190526200003491620000bc565b6001600160a01b03811660008181526001602052604080822080546001600160601b0319166a084595161401484a00000090811790915590517fddf252ad1be2c89b69c2b068fc378daa952ba7f163c4a11628f55a4df523b3ef916200009a91620000f6565b60405180910390a35062000135565b8051620000b6816200011b565b92915050565b600060208284031215620000cf57600080fd5b6000620000dd8484620000a9565b949350505050565b620000f08162000118565b82525050565b60208101620000b68284620000e5565b60006001600160a01b038216620000b6565b90565b620001268162000106565b81146200013257600080fd5b50565b611a8b80620001456000396000f3fe608060405234801561001057600080fd5b50600436106101215760003560e01c806370a08231116100ad578063b4b5ea5711610071578063b4b5ea571461025f578063c3cda52014610272578063dd62ed3e14610285578063e7a324dc14610298578063f1127ed8146102a057610121565b806370a08231146101fe578063782d6fe1146102115780637ecebe001461023157806395d89b4114610244578063a9059cbb1461024c57610121565b806323b872dd116100f457806323b872dd14610181578063313ce56714610194578063587cde1e146101a95780635c19a95c146101c95780636fcfff45146101de57610121565b806306fdde0314610126578063095ea7b31461014457806318160ddd1461016457806320606b7014610179575b600080fd5b61012e6102c1565b60405161013b919061173c565b60405180910390f35b610157610152366004611205565b6102e5565b60405161013b9190611692565b61016c6103a2565b60405161013b91906116a0565b61016c6103b1565b61015761018f3660046111b8565b6103c8565b61019c61050d565b60405161013b91906117d6565b6101bc6101b7366004611158565b610512565b60405161013b9190611684565b6101dc6101d7366004611158565b61052d565b005b6101f16101ec366004611158565b61053a565b60405161013b91906117ad565b61016c61020c366004611158565b610552565b61022461021f366004611205565b610576565b60405161013b91906117f2565b61016c61023f366004611158565b61078d565b61012e61079f565b61015761025a366004611205565b6107bf565b61022461026d366004611158565b6107fb565b6101dc610280366004611235565b61086b565b61016c61029336600461117e565b610a55565b61016c610a87565b6102b36102ae3660046112bc565b610a93565b60405161013b9291906117bb565b6040518060400160405280600881526020016710dbdb5c1bdd5b9960c21b81525081565b6000806000198314156102fb5750600019610320565b61031d8360405180606001604052806025815260200161190e60259139610ac8565b90505b336000818152602081815260408083206001600160a01b03891680855292529182902080546001600160601b0319166001600160601b03861617905590519091907f8c5be1e5ebec7d5bd14f71427d1e84f3dd0314c0f7b2291e5b200ac8c7c3b9259061038e9085906117e4565b60405180910390a360019150505b92915050565b6a084595161401484a00000081565b6040516103bd9061166e565b604051809103902081565b6001600160a01b0383166000908152602081815260408083203380855290835281842054825160608101909352602580845291936001600160601b0390911692859261041e928892919061190e90830139610ac8565b9050866001600160a01b0316836001600160a01b03161415801561044b57506001600160601b0382811614155b156104f357600061047583836040518060600160405280603d81526020016119e5603d9139610af7565b6001600160a01b03898116600081815260208181526040808320948a16808452949091529081902080546001600160601b0319166001600160601b0386161790555192935090917f8c5be1e5ebec7d5bd14f71427d1e84f3dd0314c0f7b2291e5b200ac8c7c3b925906104e99085906117e4565b60405180910390a3505b6104fe878783610b36565b600193505050505b9392505050565b601281565b6002602052600090815260409020546001600160a01b031681565b6105373382610ce1565b50565b60046020526000908152604090205463ffffffff1681565b6001600160a01b03166000908152600160205260409020546001600160601b031690565b60004382106105a05760405162461bcd60e51b81526004016105979061176d565b60405180910390fd5b6001600160a01b03831660009081526004602052604090205463ffffffff16806105ce57600091505061039c565b6001600160a01b038416600090815260036020908152604080832063ffffffff60001986018116855292529091205416831061064a576001600160a01b03841660009081526003602090815260408083206000199490940163ffffffff1683529290522054600160201b90046001600160601b0316905061039c565b6001600160a01b038416600090815260036020908152604080832083805290915290205463ffffffff1683101561068557600091505061039c565b600060001982015b8163ffffffff168163ffffffff16111561074857600282820363ffffffff160481036106b7611115565b506001600160a01b038716600090815260036020908152604080832063ffffffff858116855290835292819020815180830190925254928316808252600160201b9093046001600160601b031691810191909152908714156107235760200151945061039c9350505050565b805163ffffffff1687111561073a57819350610741565b6001820392505b505061068d565b506001600160a01b038516600090815260036020908152604080832063ffffffff909416835292905220546001600160601b03600160201b9091041691505092915050565b60056020526000908152604090205481565b604051806040016040528060048152602001630434f4d560e41b81525081565b6000806107e48360405180606001604052806026815260200161193360269139610ac8565b90506107f1338583610b36565b5060019392505050565b6001600160a01b03811660009081526004602052604081205463ffffffff1680610826576000610506565b6001600160a01b0383166000908152600360209081526040808320600019850163ffffffff168452909152902054600160201b90046001600160601b03169392505050565b60006040516108799061166e565b60408051918290038220828201909152600882526710dbdb5c1bdd5b9960c21b6020909201919091527f561ca898cce9f021c15a441ef41899706e923541cee724530075d1a1144761c76108cb610d6b565b306040516020016108df94939291906116ec565b604051602081830303815290604052805190602001209050600060405161090590611679565b604051908190038120610920918a908a908a906020016116ae565b6040516020818303038152906040528051906020012090506000828260405160200161094d92919061163d565b60405160208183030381529060405280519060200120905060006001828888886040516000815260200160405260405161098a9493929190611721565b6020604051602081039080840390855afa1580156109ac573d6000803e3d6000fd5b5050604051601f1901519150506001600160a01b0381166109df5760405162461bcd60e51b81526004016105979061174d565b6001600160a01b03811660009081526005602052604090208054600181019091558914610a1e5760405162461bcd60e51b81526004016105979061177d565b87421115610a3e5760405162461bcd60e51b81526004016105979061175d565b610a48818b610ce1565b505050505b505050505050565b6001600160a01b039182166000908152602081815260408083209390941682529190915220546001600160601b031690565b6040516103bd90611679565b600360209081526000928352604080842090915290825290205463ffffffff811690600160201b90046001600160601b031682565b600081600160601b8410610aef5760405162461bcd60e51b8152600401610597919061173c565b509192915050565b6000836001600160601b0316836001600160601b031611158290610b2e5760405162461bcd60e51b8152600401610597919061173c565b505050900390565b6001600160a01b038316610b5c5760405162461bcd60e51b81526004016105979061179d565b6001600160a01b038216610b825760405162461bcd60e51b81526004016105979061178d565b6001600160a01b038316600090815260016020908152604091829020548251606081019093526036808452610bcd936001600160601b0390921692859291906118d890830139610af7565b6001600160a01b03848116600090815260016020908152604080832080546001600160601b0319166001600160601b03968716179055928616825290829020548251606081019093526030808452610c3594919091169285929091906119b590830139610d6f565b6001600160a01b038381166000818152600160205260409081902080546001600160601b0319166001600160601b0395909516949094179093559151908516907fddf252ad1be2c89b69c2b068fc378daa952ba7f163c4a11628f55a4df523b3ef90610ca29085906117e4565b60405180910390a36001600160a01b03808416600090815260026020526040808220548584168352912054610cdc92918216911683610dab565b505050565b6001600160a01b03808316600081815260026020818152604080842080546001845282862054949093528787166001600160a01b031984168117909155905191909516946001600160601b039092169391928592917f3134e8a2e6d97e929a7e54011ea5485d7d196dd5f0ba4d4ef95803e8e3fc257f9190a4610d65828483610dab565b50505050565b4690565b6000838301826001600160601b038087169083161015610da25760405162461bcd60e51b8152600401610597919061173c565b50949350505050565b816001600160a01b0316836001600160a01b031614158015610dd657506000816001600160601b0316115b15610cdc576001600160a01b03831615610e8e576001600160a01b03831660009081526004602052604081205463ffffffff169081610e16576000610e55565b6001600160a01b0385166000908152600360209081526040808320600019860163ffffffff168452909152902054600160201b90046001600160601b03165b90506000610e7c828560405180606001604052806028815260200161198d60289139610af7565b9050610e8a86848484610f39565b5050505b6001600160a01b03821615610cdc576001600160a01b03821660009081526004602052604081205463ffffffff169081610ec9576000610f08565b6001600160a01b0384166000908152600360209081526040808320600019860163ffffffff168452909152902054600160201b90046001600160601b03165b90506000610f2f8285604051806060016040528060278152602001611a2260279139610d6f565b9050610a4d858484845b6000610f5d43604051806060016040528060348152602001611959603491396110ee565b905060008463ffffffff16118015610fa657506001600160a01b038516600090815260036020908152604080832063ffffffff6000198901811685529252909120548282169116145b15611005576001600160a01b0385166000908152600360209081526040808320600019880163ffffffff168452909152902080546fffffffffffffffffffffffff000000001916600160201b6001600160601b038516021790556110a4565b60408051808201825263ffffffff80841682526001600160601b0380861660208085019182526001600160a01b038b166000818152600383528781208c871682528352878120965187549451909516600160201b026fffffffffffffffffffffffff000000001995871663ffffffff19958616179590951694909417909555938252600490935292909220805460018801909316929091169190911790555b846001600160a01b03167fdec2bacdd2f05b59de34da9b523dff8be42e5e38e818c82fdb0bae774387a72484846040516110df929190611800565b60405180910390a25050505050565b600081600160201b8410610aef5760405162461bcd60e51b8152600401610597919061173c565b604080518082019091526000808252602082015290565b803561039c816118a8565b803561039c816118bc565b803561039c816118c5565b803561039c816118ce565b60006020828403121561116a57600080fd5b6000611176848461112c565b949350505050565b6000806040838503121561119157600080fd5b600061119d858561112c565b92505060206111ae8582860161112c565b9150509250929050565b6000806000606084860312156111cd57600080fd5b60006111d9868661112c565b93505060206111ea8682870161112c565b92505060406111fb86828701611137565b9150509250925092565b6000806040838503121561121857600080fd5b6000611224858561112c565b92505060206111ae85828601611137565b60008060008060008060c0878903121561124e57600080fd5b600061125a898961112c565b965050602061126b89828a01611137565b955050604061127c89828a01611137565b945050606061128d89828a0161114d565b935050608061129e89828a01611137565b92505060a06112af89828a01611137565b9150509295509295509295565b600080604083850312156112cf57600080fd5b60006112db858561112c565b92505060206111ae85828601611142565b6112f58161182d565b82525050565b6112f581611838565b6112f58161183d565b6112f56113198261183d565b61183d565b60006113298261181b565b611333818561181f565b9350611343818560208601611872565b61134c8161189e565b9093019392505050565b600061136360268361181f565b7f436f6d703a3a64656c656761746542795369673a20696e76616c6964207369678152656e617475726560d01b602082015260400192915050565b60006113ab60268361181f565b7f436f6d703a3a64656c656761746542795369673a207369676e617475726520658152651e1c1a5c995960d21b602082015260400192915050565b60006113f3600283611828565b61190160f01b815260020192915050565b600061141160278361181f565b7f436f6d703a3a6765745072696f72566f7465733a206e6f742079657420646574815266195c9b5a5b995960ca1b602082015260400192915050565b600061145a60228361181f565b7f436f6d703a3a64656c656761746542795369673a20696e76616c6964206e6f6e815261636560f01b602082015260400192915050565b600061149e603a8361181f565b7f436f6d703a3a5f7472616e73666572546f6b656e733a2063616e6e6f7420747281527f616e7366657220746f20746865207a65726f2061646472657373000000000000602082015260400192915050565b60006114fd604383611828565b7f454950373132446f6d61696e28737472696e67206e616d652c75696e7432353681527f20636861696e49642c6164647265737320766572696679696e67436f6e74726160208201526263742960e81b604082015260430192915050565b6000611568603c8361181f565b7f436f6d703a3a5f7472616e73666572546f6b656e733a2063616e6e6f7420747281527f616e736665722066726f6d20746865207a65726f206164647265737300000000602082015260400192915050565b60006115c7603a83611828565b7f44656c65676174696f6e28616464726573732064656c6567617465652c75696e81527f74323536206e6f6e63652c75696e7432353620657870697279290000000000006020820152603a0192915050565b6112f58161184c565b6112f581611855565b6112f581611867565b6112f58161185b565b6000611648826113e6565b9150611654828561130d565b602082019150611664828461130d565b5060200192915050565b600061039c826114f0565b600061039c826115ba565b6020810161039c82846112ec565b6020810161039c82846112fb565b6020810161039c8284611304565b608081016116bc8287611304565b6116c960208301866112ec565b6116d66040830185611304565b6116e36060830184611304565b95945050505050565b608081016116fa8287611304565b6117076020830186611304565b6117146040830185611304565b6116e360608301846112ec565b6080810161172f8287611304565b6116c96020830186611622565b60208082528101610506818461131e565b6020808252810161039c81611356565b6020808252810161039c8161139e565b6020808252810161039c81611404565b6020808252810161039c8161144d565b6020808252810161039c81611491565b6020808252810161039c8161155b565b6020810161039c8284611619565b604081016117c98285611619565b6105066020830184611634565b6020810161039c8284611622565b6020810161039c828461162b565b6020810161039c8284611634565b6040810161180e828561162b565b610506602083018461162b565b5190565b90815260200190565b919050565b600061039c82611840565b151590565b90565b6001600160a01b031690565b63ffffffff1690565b60ff1690565b6001600160601b031690565b600061039c8261185b565b60005b8381101561188d578181015183820152602001611875565b83811115610d655750506000910152565b601f01601f191690565b6118b18161182d565b811461053757600080fd5b6118b18161183d565b6118b18161184c565b6118b18161185556fe436f6d703a3a5f7472616e73666572546f6b656e733a207472616e7366657220616d6f756e7420657863656564732062616c616e6365436f6d703a3a617070726f76653a20616d6f756e7420657863656564732039362062697473436f6d703a3a7472616e736665723a20616d6f756e7420657863656564732039362062697473436f6d703a3a5f7772697465436865636b706f696e743a20626c6f636b206e756d62657220657863656564732033322062697473436f6d703a3a5f6d6f7665566f7465733a20766f746520616d6f756e7420756e646572666c6f7773436f6d703a3a5f7472616e73666572546f6b656e733a207472616e7366657220616d6f756e74206f766572666c6f7773436f6d703a3a7472616e7366657246726f6d3a207472616e7366657220616d6f756e742065786365656473207370656e64657220616c6c6f77616e6365436f6d703a3a5f6d6f7665566f7465733a20766f746520616d6f756e74206f766572666c6f7773a365627a7a72315820d706d03e8feb8bae3a9d2b1718ce845750be7217601b9ef8dac8e149cb0a4f116c6578706572696d656e74616cf564736f6c63430005100040",
    "linkReferences": {}
  },
  "methodIdentifiers": {
    "DELEGATION_TYPEHASH()": "e7a324dc",
    "DOMAIN_TYPEHASH()": "20606b70",
    "allowance(address,address)": "dd62ed3e",
    "approve(address,uint256)": "095ea7b3",
    "balanceOf(address)": "70a08231",
    "checkpoints(address,uint32)": "f1127ed8",
    "decimals()": "313ce567",
    "delegate(address)": "5c19a95c",
    "delegateBySig(address,uint256,uint256,uint8,bytes32,bytes32)": "c3cda520",
    "delegates(address)": "587cde1e",
    "getCurrentVotes(address)": "b4b5ea57",
    "getPriorVotes(address,uint256)": "782d6fe1",
    "name()": "06fdde03",
    "nonces(address)": "7ecebe00",
    "numCheckpoints(address)": "6fcfff45",
    "symbol()": "95d89b41",
    "totalSupply()": "18160ddd",
    "transfer(address,uint256)": "a9059cbb",
    "transferFrom(address,address,uint256)": "23b872dd"
  },
  "id": 16
}