{
  "abi": [
    {
      "constant": true,
      "inputs": [],
      "name": "implementation",
      "outputs": [
        {
          "internalType": "address",
          "name": "",
          "type": "address"
        }
      ],
      "payable": false,
      "stateMutability": "view",
      "type": "function"
    }
  ],
  "bytecode": {
    "object": "0x6080604052348015600f57600080fd5b5060938061001e6000396000f3fe6080604052348015600f57600080fd5b506004361060285760003560e01c80635c60da1b14602d575b600080fd5b6033604f565b604080516001600160a01b039092168252519081900360200190f35b6000546001600160a01b03168156fea265627a7a7231582016ca5116656af294660a3945dc361e36ef298dbb9ec049a215723b0cdf8de32f64736f6c63430005110032",
    "linkReferences": {}
  },
  "methodIdentifiers": {
    "implementation()": "5c60da1b"
  },
  "id": 5
}