{
  "abi": [
    {
      "inputs": [],
      "payable": false,
      "stateMutability": "nonpayable",
      "type": "constructor"
    },
    {
      "anonymous": false,
      "inputs": [
        {
          "indexed": false,
          "internalType": "string",
          "name": "action",
          "type": "string"
        },
        {
          "indexed": false,
          "internalType": "bool",
          "name": "pauseState",
          "type": "bool"
        }
      ],
      "name": "ActionPaused",
      "type": "event"
    },
    {
      "anonymous": false,
      "inputs": [
        {
          "indexed": false,
          "internalType": "contract CToken",
          "name": "cToken",
          "type": "address"
        },
        {
          "indexed": false,
          "internalType": "string",
          "name": "action",
          "type": "string"
        },
        {
          "indexed": false,
          "internalType": "bool",
          "name": "pauseState",
          "type": "bool"
        }
      ],
      "name": "ActionPaused",
      "type": "event"
    },
    {
      "anonymous": false,
      "inputs": [
        {
          "indexed": false,
          "internalType": "address",
          "name": "recipient",
          "type": "address"
        },
        {
          "indexed": false,
          "internalType": "uint256",
          "name": "amount",
          "type": "uint256"
        }
      ],
      "name": "CompGranted",
      "type": "event"
    },
    {
      "anonymous": false,
      "inputs": [
        {
          "indexed": true,
          "internalType": "contract CToken",
          "name": "cToken",
          "type": "address"
        },
        {
          "indexed": false,
          "internalType": "uint256",
          "name": "newSpeed",
          "type": "uint256"
        }
      ],
      "name": "CompSpeedUpdated",
      "type": "event"
    },
    {
      "anonymous": false,
      "inputs": [
        {
          "indexed": true,
          "internalType": "address",
          "name": "contributor",
          "type": "address"
        },
        {
          "indexed": false,
          "internalType": "uint256",
          "name": "newSpeed",
          "type": "uint256"
        }
      ],
      "name": "ContributorCompSpeedUpdated",
      "type": "event"
    },
    {
      "anonymous": false,
      "inputs": [
        {
          "indexed": true,
          "internalType": "contract CToken",
          "name": "cToken",
          "type": "address"
        },
        {
          "indexed": true,
          "internalType": "address",
          "name": "borrower",
          "type": "address"
        },
        {
          "indexed": false,
          "internalType": "uint256",
          "name": "compDelta",
          "type": "uint256"
        },
        {
          "indexed": false,
          "internalType": "uint256",
          "name": "compBorrowIndex",
          "type": "uint256"
        }
      ],
      "name": "DistributedBorrowerComp",
      "type": "event"
    },
    {
      "anonymous": false,
      "inputs": [
        {
          "indexed": true,
          "internalType": "contract CToken",
          "name": "cToken",
          "type": "address"
        },
        {
          "indexed": true,
          "internalType": "address",
          "name": "supplier",
          "type": "address"
        },
        {
          "indexed": false,
          "internalType": "uint256",
          "name": "compDelta",
          "type": "uint256"
        },
        {
          "indexed": false,
          "internalType": "uint256",
          "name": "compSupplyIndex",
          "type": "uint256"
        }
      ],
      "name": "DistributedSupplierComp",
      "type": "event"
    },
    {
      "anonymous": false,
      "inputs": [
        {
          "indexed": false,
          "internalType": "uint256",
          "name": "error",
          "type": "uint256"
        },
        {
          "indexed": false,
          "internalType": "uint256",
          "name": "info",
          "type": "uint256"
        },
        {
          "indexed": false,
          "internalType": "uint256",
          "name": "detail",
          "type": "uint256"
        }
      ],
      "name": "Failure",
      "type": "event"
    },
    {
      "anonymous": false,
      "inputs": [
        {
          "indexed": false,
          "internalType": "contract CToken",
          "name": "cToken",
          "type": "address"
        },
        {
          "indexed": false,
          "internalType": "bool",
          "name": "isComped",
          "type": "bool"
        }
      ],
      "name": "MarketComped",
      "type": "event"
    },
    {
      "anonymous": false,
      "inputs": [
        {
          "indexed": false,
          "internalType": "contract CToken",
          "name": "cToken",
          "type": "address"
        },
        {
          "indexed": false,
          "internalType": "address",
          "name": "account",
          "type": "address"
        }
      ],
      "name": "MarketEntered",
      "type": "event"
    },
    {
      "anonymous": false,
      "inputs": [
        {
          "indexed": false,
          "internalType": "contract CToken",
          "name": "cToken",
          "type": "address"
        },
        {
          "indexed": false,
          "internalType": "address",
          "name": "account",
          "type": "address"
        }
      ],
      "name": "MarketExited",
      "type": "event"
    },
    {
      "anonymous": false,
      "inputs": [
        {
          "indexed": false,
          "internalType": "contract CToken",
          "name": "cToken",
          "type": "address"
        }
      ],
      "name": "MarketListed",
      "type": "event"
    },
    {
      "anonymous": false,
      "inputs": [
        {
          "indexed": true,
          "internalType": "contract CToken",
          "name": "cToken",
          "type": "address"
        },
        {
          "indexed": false,
          "internalType": "uint256",
          "name": "newBorrowCap",
          "type": "uint256"
        }
      ],
      "name": "NewBorrowCap",
      "type": "event"
    },
    {
      "anonymous": false,
      "inputs": [
        {
          "indexed": false,
          "internalType": "address",
          "name": "oldBorrowCapGuardian",
          "type": "address"
        },
        {
          "indexed": false,
          "internalType": "address",
          "name": "newBorrowCapGuardian",
          "type": "address"
        }
      ],
      "name": "NewBorrowCapGuardian",
      "type": "event"
    },
    {
      "anonymous": false,
      "inputs": [
        {
          "indexed": false,
          "internalType": "uint256",
          "name": "oldCloseFactorMantissa",
          "type": "uint256"
        },
        {
          "indexed": false,
          "internalType": "uint256",
          "name": "newCloseFactorMantissa",
          "type": "uint256"
        }
      ],
      "name": "NewCloseFactor",
      "type": "event"
    },
    {
      "anonymous": false,
      "inputs": [
        {
          "indexed": false,
          "internalType": "contract CToken",
          "name": "cToken",
          "type": "address"
        },
        {
          "indexed": false,
          "internalType": "uint256",
          "name": "oldCollateralFactorMantissa",
          "type": "uint256"
        },
        {
          "indexed": false,
          "internalType": "uint256",
          "name": "newCollateralFactorMantissa",
          "type": "uint256"
        }
      ],
      "name": "NewCollateralFactor",
      "type": "event"
    },
    {
      "anonymous": false,
      "inputs": [
        {
          "indexed": false,
          "internalType": "uint256",
          "name": "oldCompRate",
          "type": "uint256"
        },
        {
          "indexed": false,
          "internalType": "uint256",
          "name": "newCompRate",
          "type": "uint256"
        }
      ],
      "name": "NewCompRate",
      "type": "event"
    },
    {
      "anonymous": false,
      "inputs": [
        {
          "indexed": false,
          "internalType": "uint256",
          "name": "oldLiquidationIncentiveMantissa",
          "type": "uint256"
        },
        {
          "indexed": false,
          "internalType": "uint256",
          "name": "newLiquidationIncentiveMantissa",
          "type": "uint256"
        }
      ],
      "name": "NewLiquidationIncentive",
      "type": "event"
    },
    {
      "anonymous": false,
      "inputs": [
        {
          "indexed": false,
          "internalType": "address",
          "name": "oldPauseGuardian",
          "type": "address"
        },
        {
          "indexed": false,
          "internalType": "address",
          "name": "newPauseGuardian",
          "type": "address"
        }
      ],
      "name": "NewPauseGuardian",
      "type": "event"
    },
    {
      "anonymous": false,
      "inputs": [
        {
          "indexed": false,
          "internalType": "contract PriceOracle",
          "name": "oldPriceOracle",
          "type": "address"
        },
        {
          "indexed": false,
          "internalType": "contract PriceOracle",
          "name": "newPriceOracle",
          "type": "address"
        }
      ],
      "name": "NewPriceOracle",
      "type": "event"
    },
    {
      "constant": false,
      "inputs": [
        {
          "internalType": "address[]",
          "name": "cTokens",
          "type": "address[]"
        }
      ],
      "name": "_addCompMarkets",
      "outputs": [],
      "payable": false,
      "stateMutability": "nonpayable",
      "type": "function"
    },
    {
      "constant": false,
      "inputs": [
        {
          "internalType": "contract Unitroller",
          "name": "unitroller",
          "type": "address"
        }
      ],
      "name": "_become",
      "outputs": [],
      "payable": false,
      "stateMutability": "nonpayable",
      "type": "function"
    },
    {
      "constant": true,
      "inputs": [],
      "name": "_borrowGuardianPaused",
      "outputs": [
        {
          "internalType": "bool",
          "name": "",
          "type": "bool"
        }
      ],
      "payable": false,
      "stateMutability": "view",
      "type": "function"
    },
    {
      "constant": false,
      "inputs": [
        {
          "internalType": "address",
          "name": "cToken",
          "type": "address"
        }
      ],
      "name": "_dropCompMarket",
      "outputs": [],
      "payable": false,
      "stateMutability": "nonpayable",
      "type": "function"
    },
    {
      "constant": false,
      "inputs": [
        {
          "internalType": "address",
          "name": "recipient",
          "type": "address"
        },
        {
          "internalType": "uint256",
          "name": "amount",
          "type": "uint256"
        }
      ],
      "name": "_grantComp",
      "outputs": [],
      "payable": false,
      "stateMutability": "nonpayable",
      "type": "function"
    },
    {
      "constant": true,
      "inputs": [],
      "name": "_mintGuardianPaused",
      "outputs": [
        {
          "internalType": "bool",
          "name": "",
          "type": "bool"
        }
      ],
      "payable": false,
      "stateMutability": "view",
      "type": "function"
    },
    {
      "constant": false,
      "inputs": [
        {
          "internalType": "address",
          "name": "newBorrowCapGuardian",
          "type": "address"
        }
      ],
      "name": "_setBorrowCapGuardian",
      "outputs": [],
      "payable": false,
      "stateMutability": "nonpayable",
      "type": "function"
    },
    {
      "constant": false,
      "inputs": [
        {
          "internalType": "contract CToken",
          "name": "cToken",
          "type": "address"
        },
        {
          "internalType": "bool",
          "name": "state",
          "type": "bool"
        }
      ],
      "name": "_setBorrowPaused",
      "outputs": [
        {
          "internalType": "bool",
          "name": "",
          "type": "bool"
        }
      ],
      "payable": false,
      "stateMutability": "nonpayable",
      "type": "function"
    },
    {
      "constant": false,
      "inputs": [
        {
          "internalType": "uint256",
          "name": "newCloseFactorMantissa",
          "type": "uint256"
        }
      ],
      "name": "_setCloseFactor",
      "outputs": [
        {
          "internalType": "uint256",
          "name": "",
          "type": "uint256"
        }
      ],
      "payable": false,
      "stateMutability": "nonpayable",
      "type": "function"
    },
    {
      "constant": false,
      "inputs": [
        {
          "internalType": "contract CToken",
          "name": "cToken",
          "type": "address"
        },
        {
          "internalType": "uint256",
          "name": "newCollateralFactorMantissa",
          "type": "uint256"
        }
      ],
      "name": "_setCollateralFactor",
      "outputs": [
        {
          "internalType": "uint256",
          "name": "",
          "type": "uint256"
        }
      ],
      "payable": false,
      "stateMutability": "nonpayable",
      "type": "function"
    },
    {
      "constant": false,
      "inputs": [
        {
          "internalType": "uint256",
          "name": "compRate_",
          "type": "uint256"
        }
      ],
      "name": "_setCompRate",
      "outputs": [],
      "payable": false,
      "stateMutability": "nonpayable",
      "type": "function"
    },
    {
      "constant": false,
      "inputs": [
        {
          "internalType": "address",
          "name": "contributor",
          "type": "address"
        },
        {
          "internalType": "uint256",
          "name": "compSpeed",
          "type": "uint256"
        }
      ],
      "name": "_setContributorCompSpeed",
      "outputs": [],
      "payable": false,
      "stateMutability": "nonpayable",
      "type": "function"
    },
    {
      "constant": false,
      "inputs": [
        {
          "internalType": "uint256",
          "name": "newLiquidationIncentiveMantissa",
          "type": "uint256"
        }
      ],
      "name": "_setLiquidationIncentive",
      "outputs": [
        {
          "internalType": "uint256",
          "name": "",
          "type": "uint256"
        }
      ],
      "payable": false,
      "stateMutability": "nonpayable",
      "type": "function"
    },
    {
      "constant": false,
      "inputs": [
        {
          "internalType": "contract CToken[]",
          "name": "cTokens",
          "type": "address[]"
        },
        {
          "internalType": "uint256[]",
          "name": "newBorrowCaps",
          "type": "uint256[]"
        }
      ],
      "name": "_setMarketBorrowCaps",
      "outputs": [],
      "payable": false,
      "stateMutability": "nonpayable",
      "type": "function"
    },
    {
      "constant": false,
      "inputs": [
        {
          "internalType": "contract CToken",
          "name": "cToken",
          "type": "address"
        },
        {
          "internalType": "bool",
          "name": "state",
          "type": "bool"
        }
      ],
      "name": "_setMintPaused",
      "outputs": [
        {
          "internalType": "bool",
          "name": "",
          "type": "bool"
        }
      ],
      "payable": false,
      "stateMutability": "nonpayable",
      "type": "function"
    },
    {
      "constant": false,
      "inputs": [
        {
          "internalType": "address",
          "name": "newPauseGuardian",
          "type": "address"
        }
      ],
      "name": "_setPauseGuardian",
      "outputs": [
        {
          "internalType": "uint256",
          "name": "",
          "type": "uint256"
        }
      ],
      "payable": false,
      "stateMutability": "nonpayable",
      "type": "function"
    },
    {
      "constant": false,
      "inputs": [
        {
          "internalType": "contract PriceOracle",
          "name": "newOracle",
          "type": "address"
        }
      ],
      "name": "_setPriceOracle",
      "outputs": [
        {
          "internalType": "uint256",
          "name": "",
          "type": "uint256"
        }
      ],
      "payable": false,
      "stateMutability": "nonpayable",
      "type": "function"
    },
    {
      "constant": false,
      "inputs": [
        {
          "internalType": "bool",
          "name": "state",
          "type": "bool"
        }
      ],
      "name": "_setSeizePaused",
      "outputs": [
        {
          "internalType": "bool",
          "name": "",
          "type": "bool"
        }
      ],
      "payable": false,
      "stateMutability": "nonpayable",
      "type": "function"
    },
    {
      "constant": false,
      "inputs": [
        {
          "internalType": "bool",
          "name": "state",
          "type": "bool"
        }
      ],
      "name": "_setTransferPaused",
      "outputs": [
        {
          "internalType": "bool",
          "name": "",
          "type": "bool"
        }
      ],
      "payable": false,
      "stateMutability": "nonpayable",
      "type": "function"
    },
    {
      "constant": false,
      "inputs": [
        {
          "internalType": "contract CToken",
          "name": "cToken",
          "type": "address"
        }
      ],
      "name": "_supportMarket",
      "outputs": [
        {
          "internalType": "uint256",
          "name": "",
          "type": "uint256"
        }
      ],
      "payable": false,
      "stateMutability": "nonpayable",
      "type": "function"
    },
    {
      "constant": true,
      "inputs": [
        {
          "internalType": "address",
          "name": "",
          "type": "address"
        },
        {
          "internalType": "uint256",
          "name": "",
          "type": "uint256"
        }
      ],
      "name": "accountAssets",
      "outputs": [
        {
          "internalType": "contract CToken",
          "name": "",
          "type": "address"
        }
      ],
      "payable": false,
      "stateMutability": "view",
      "type": "function"
    },
    {
      "constant": true,
      "inputs": [],
      "name": "admin",
      "outputs": [
        {
          "internalType": "address",
          "name": "",
          "type": "address"
        }
      ],
      "payable": false,
      "stateMutability": "view",
      "type": "function"
    },
    {
      "constant": true,
      "inputs": [
        {
          "internalType": "uint256",
          "name": "",
          "type": "uint256"
        }
      ],
      "name": "allMarkets",
      "outputs": [
        {
          "internalType": "contract CToken",
          "name": "",
          "type": "address"
        }
      ],
      "payable": false,
      "stateMutability": "view",
      "type": "function"
    },
    {
      "constant": false,
      "inputs": [
        {
          "internalType": "address",
          "name": "cToken",
          "type": "address"
        },
        {
          "internalType": "address",
          "name": "borrower",
          "type": "address"
        },
        {
          "internalType": "uint256",
          "name": "borrowAmount",
          "type": "uint256"
        }
      ],
      "name": "borrowAllowed",
      "outputs": [
        {
          "internalType": "uint256",
          "name": "",
          "type": "uint256"
        }
      ],
      "payable": false,
      "stateMutability": "nonpayable",
      "type": "function"
    },
    {
      "constant": true,
      "inputs": [],
      "name": "borrowCapGuardian",
      "outputs": [
        {
          "internalType": "address",
          "name": "",
          "type": "address"
        }
      ],
      "payable": false,
      "stateMutability": "view",
      "type": "function"
    },
    {
      "constant": true,
      "inputs": [
        {
          "internalType": "address",
          "name": "",
          "type": "address"
        }
      ],
      "name": "borrowCaps",
      "outputs": [
        {
          "internalType": "uint256",
          "name": "",
          "type": "uint256"
        }
      ],
      "payable": false,
      "stateMutability": "view",
      "type": "function"
    },
    {
      "constant": true,
      "inputs": [
        {
          "internalType": "address",
          "name": "",
          "type": "address"
        }
      ],
      "name": "borrowGuardianPaused",
      "outputs": [
        {
          "internalType": "bool",
          "name": "",
          "type": "bool"
        }
      ],
      "payable": false,
      "stateMutability": "view",
      "type": "function"
    },
    {
      "constant": false,
      "inputs": [
        {
          "internalType": "address",
          "name": "cToken",
          "type": "address"
        },
        {
          "internalType": "address",
          "name": "borrower",
          "type": "address"
        },
        {
          "internalType": "uint256",
          "name": "borrowAmount",
          "type": "uint256"
        }
      ],
      "name": "borrowVerify",
      "outputs": [],
      "payable": false,
      "stateMutability": "nonpayable",
      "type": "function"
    },
    {
      "constant": true,
      "inputs": [
        {
          "internalType": "address",
          "name": "account",
          "type": "address"
        },
        {
          "internalType": "contract CToken",
          "name": "cToken",
          "type": "address"
        }
      ],
      "name": "checkMembership",
      "outputs": [
        {
          "internalType": "bool",
          "name": "",
          "type": "bool"
        }
      ],
      "payable": false,
      "stateMutability": "view",
      "type": "function"
    },
    {
      "constant": false,
      "inputs": [
        {
          "internalType": "address",
          "name": "holder",
          "type": "address"
        },
        {
          "internalType": "contract CToken[]",
          "name": "cTokens",
          "type": "address[]"
        }
      ],
      "name": "claimComp",
      "outputs": [],
      "payable": false,
      "stateMutability": "nonpayable",
      "type": "function"
    },
    {
      "constant": false,
      "inputs": [
        {
          "internalType": "address[]",
          "name": "holders",
          "type": "address[]"
        },
        {
          "internalType": "contract CToken[]",
          "name": "cTokens",
          "type": "address[]"
        },
        {
          "internalType": "bool",
          "name": "borrowers",
          "type": "bool"
        },
        {
          "internalType": "bool",
          "name": "suppliers",
          "type": "bool"
        }
      ],
      "name": "claimComp",
      "outputs": [],
      "payable": false,
      "stateMutability": "nonpayable",
      "type": "function"
    },
    {
      "constant": false,
      "inputs": [
        {
          "internalType": "address",
          "name": "holder",
          "type": "address"
        }
      ],
      "name": "claimComp",
      "outputs": [],
      "payable": false,
      "stateMutability": "nonpayable",
      "type": "function"
    },
    {
      "constant": true,
      "inputs": [],
      "name": "closeFactorMantissa",
      "outputs": [
        {
          "internalType": "uint256",
          "name": "",
          "type": "uint256"
        }
      ],
      "payable": false,
      "stateMutability": "view",
      "type": "function"
    },
    {
      "constant": true,
      "inputs": [
        {
          "internalType": "address",
          "name": "",
          "type": "address"
        }
      ],
      "name": "compAccrued",
      "outputs": [
        {
          "internalType": "uint256",
          "name": "",
          "type": "uint256"
        }
      ],
      "payable": false,
      "stateMutability": "view",
      "type": "function"
    },
    {
      "constant": true,
      "inputs": [
        {
          "internalType": "address",
          "name": "",
          "type": "address"
        }
      ],
      "name": "compBorrowState",
      "outputs": [
        {
          "internalType": "uint224",
          "name": "index",
          "type": "uint224"
        },
        {
          "internalType": "uint32",
          "name": "block",
          "type": "uint32"
        }
      ],
      "payable": false,
      "stateMutability": "view",
      "type": "function"
    },
    {
      "constant": true,
      "inputs": [
        {
          "internalType": "address",
          "name": "",
          "type": "address"
        },
        {
          "internalType": "address",
          "name": "",
          "type": "address"
        }
      ],
      "name": "compBorrowerIndex",
      "outputs": [
        {
          "internalType": "uint256",
          "name": "",
          "type": "uint256"
        }
      ],
      "payable": false,
      "stateMutability": "view",
      "type": "function"
    },
    {
      "constant": true,
      "inputs": [],
      "name": "compClaimThreshold",
      "outputs": [
        {
          "internalType": "uint256",
          "name": "",
          "type": "uint256"
        }
      ],
      "payable": false,
      "stateMutability": "view",
      "type": "function"
    },
    {
      "constant": true,
      "inputs": [
        {
          "internalType": "address",
          "name": "",
          "type": "address"
        }
      ],
      "name": "compContributorSpeeds",
      "outputs": [
        {
          "internalType": "uint256",
          "name": "",
          "type": "uint256"
        }
      ],
      "payable": false,
      "stateMutability": "view",
      "type": "function"
    },
    {
      "constant": true,
      "inputs": [],
      "name": "compInitialIndex",
      "outputs": [
        {
          "internalType": "uint224",
          "name": "",
          "type": "uint224"
        }
      ],
      "payable": false,
      "stateMutability": "view",
      "type": "function"
    },
    {
      "constant": true,
      "inputs": [],
      "name": "compRate",
      "outputs": [
        {
          "internalType": "uint256",
          "name": "",
          "type": "uint256"
        }
      ],
      "payable": false,
      "stateMutability": "view",
      "type": "function"
    },
    {
      "constant": true,
      "inputs": [
        {
          "internalType": "address",
          "name": "",
          "type": "address"
        }
      ],
      "name": "compSpeeds",
      "outputs": [
        {
          "internalType": "uint256",
          "name": "",
          "type": "uint256"
        }
      ],
      "payable": false,
      "stateMutability": "view",
      "type": "function"
    },
    {
      "constant": true,
      "inputs": [
        {
          "internalType": "address",
          "name": "",
          "type": "address"
        },
        {
          "internalType": "address",
          "name": "",
          "type": "address"
        }
      ],
      "name": "compSupplierIndex",
      "outputs": [
        {
          "internalType": "uint256",
          "name": "",
          "type": "uint256"
        }
      ],
      "payable": false,
      "stateMutability": "view",
      "type": "function"
    },
    {
      "constant": true,
      "inputs": [
        {
          "internalType": "address",
          "name": "",
          "type": "address"
        }
      ],
      "name": "compSupplyState",
      "outputs": [
        {
          "internalType": "uint224",
          "name": "index",
          "type": "uint224"
        },
        {
          "internalType": "uint32",
          "name": "block",
          "type": "uint32"
        }
      ],
      "payable": false,
      "stateMutability": "view",
      "type": "function"
    },
    {
      "constant": true,
      "inputs": [],
      "name": "comptrollerImplementation",
      "outputs": [
        {
          "internalType": "address",
          "name": "",
          "type": "address"
        }
      ],
      "payable": false,
      "stateMutability": "view",
      "type": "function"
    },
    {
      "constant": false,
      "inputs": [
        {
          "internalType": "address[]",
          "name": "cTokens",
          "type": "address[]"
        }
      ],
      "name": "enterMarkets",
      "outputs": [
        {
          "internalType": "uint256[]",
          "name": "",
          "type": "uint256[]"
        }
      ],
      "payable": false,
      "stateMutability": "nonpayable",
      "type": "function"
    },
    {
      "constant": false,
      "inputs": [
        {
          "internalType": "address",
          "name": "cTokenAddress",
          "type": "address"
        }
      ],
      "name": "exitMarket",
      "outputs": [
        {
          "internalType": "uint256",
          "name": "",
          "type": "uint256"
        }
      ],
      "payable": false,
      "stateMutability": "nonpayable",
      "type": "function"
    },
    {
      "constant": true,
      "inputs": [
        {
          "internalType": "address",
          "name": "account",
          "type": "address"
        }
      ],
      "name": "getAccountLiquidity",
      "outputs": [
        {
          "internalType": "uint256",
          "name": "",
          "type": "uint256"
        },
        {
          "internalType": "uint256",
          "name": "",
          "type": "uint256"
        },
        {
          "internalType": "uint256",
          "name": "",
          "type": "uint256"
        }
      ],
      "payable": false,
      "stateMutability": "view",
      "type": "function"
    },
    {
      "constant": true,
      "inputs": [],
      "name": "getAllMarkets",
      "outputs": [
        {
          "internalType": "contract CToken[]",
          "name": "",
          "type": "address[]"
        }
      ],
      "payable": false,
      "stateMutability": "view",
      "type": "function"
    },
    {
      "constant": true,
      "inputs": [
        {
          "internalType": "address",
          "name": "account",
          "type": "address"
        }
      ],
      "name": "getAssetsIn",
      "outputs": [
        {
          "internalType": "contract CToken[]",
          "name": "",
          "type": "address[]"
        }
      ],
      "payable": false,
      "stateMutability": "view",
      "type": "function"
    },
    {
      "constant": true,
      "inputs": [],
      "name": "getBlockNumber",
      "outputs": [
        {
          "internalType": "uint256",
          "name": "",
          "type": "uint256"
        }
      ],
      "payable": false,
      "stateMutability": "view",
      "type": "function"
    },
    {
      "constant": true,
      "inputs": [],
      "name": "getCompAddress",
      "outputs": [
        {
          "internalType": "address",
          "name": "",
          "type": "address"
        }
      ],
      "payable": false,
      "stateMutability": "view",
      "type": "function"
    },
    {
      "constant": true,
      "inputs": [
        {
          "internalType": "address",
          "name": "account",
          "type": "address"
        },
        {
          "internalType": "address",
          "name": "cTokenModify",
          "type": "address"
        },
        {
          "internalType": "uint256",
          "name": "redeemTokens",
          "type": "uint256"
        },
        {
          "internalType": "uint256",
          "name": "borrowAmount",
          "type": "uint256"
        }
      ],
      "name": "getHypotheticalAccountLiquidity",
      "outputs": [
        {
          "internalType": "uint256",
          "name": "",
          "type": "uint256"
        },
        {
          "internalType": "uint256",
          "name": "",
          "type": "uint256"
        },
        {
          "internalType": "uint256",
          "name": "",
          "type": "uint256"
        }
      ],
      "payable": false,
      "stateMutability": "view",
      "type": "function"
    },
    {
      "constant": true,
      "inputs": [],
      "name": "isComptroller",
      "outputs": [
        {
          "internalType": "bool",
          "name": "",
          "type": "bool"
        }
      ],
      "payable": false,
      "stateMutability": "view",
      "type": "function"
    },
    {
      "constant": true,
      "inputs": [
        {
          "internalType": "address",
          "name": "",
          "type": "address"
        }
      ],
      "name": "lastContributorBlock",
      "outputs": [
        {
          "internalType": "uint256",
          "name": "",
          "type": "uint256"
        }
      ],
      "payable": false,
      "stateMutability": "view",
      "type": "function"
    },
    {
      "constant": false,
      "inputs": [
        {
          "internalType": "address",
          "name": "cTokenBorrowed",
          "type": "address"
        },
        {
          "internalType": "address",
          "name": "cTokenCollateral",
          "type": "address"
        },
        {
          "internalType": "address",
          "name": "liquidator",
          "type": "address"
        },
        {
          "internalType": "address",
          "name": "borrower",
          "type": "address"
        },
        {
          "internalType": "uint256",
          "name": "repayAmount",
          "type": "uint256"
        }
      ],
      "name": "liquidateBorrowAllowed",
      "outputs": [
        {
          "internalType": "uint256",
          "name": "",
          "type": "uint256"
        }
      ],
      "payable": false,
      "stateMutability": "nonpayable",
      "type": "function"
    },
    {
      "constant": false,
      "inputs": [
        {
          "internalType": "address",
          "name": "cTokenBorrowed",
          "type": "address"
        },
        {
          "internalType": "address",
          "name": "cTokenCollateral",
          "type": "address"
        },
        {
          "internalType": "address",
          "name": "liquidator",
          "type": "address"
        },
        {
          "internalType": "address",
          "name": "borrower",
          "type": "address"
        },
        {
          "internalType": "uint256",
          "name": "actualRepayAmount",
          "type": "uint256"
        },
        {
          "internalType": "uint256",
          "name": "seizeTokens",
          "type": "uint256"
        }
      ],
      "name": "liquidateBorrowVerify",
      "outputs": [],
      "payable": false,
      "stateMutability": "nonpayable",
      "type": "function"
    },
    {
      "constant": true,
      "inputs": [
        {
          "internalType": "address",
          "name": "cTokenBorrowed",
          "type": "address"
        },
        {
          "internalType": "address",
          "name": "cTokenCollateral",
          "type": "address"
        },
        {
          "internalType": "uint256",
          "name": "actualRepayAmount",
          "type": "uint256"
        }
      ],
      "name": "liquidateCalculateSeizeTokens",
      "outputs": [
        {
          "internalType": "uint256",
          "name": "",
          "type": "uint256"
        },
        {
          "internalType": "uint256",
          "name": "",
          "type": "uint256"
        }
      ],
      "payable": false,
      "stateMutability": "view",
      "type": "function"
    },
    {
      "constant": true,
      "inputs": [],
      "name": "liquidationIncentiveMantissa",
      "outputs": [
        {
          "internalType": "uint256",
          "name": "",
          "type": "uint256"
        }
      ],
      "payable": false,
      "stateMutability": "view",
      "type": "function"
    },
    {
      "constant": true,
      "inputs": [
        {
          "internalType": "address",
          "name": "",
          "type": "address"
        }
      ],
      "name": "markets",
      "outputs": [
        {
          "internalType": "bool",
          "name": "isListed",
          "type": "bool"
        },
        {
          "internalType": "uint256",
          "name": "collateralFactorMantissa",
          "type": "uint256"
        },
        {
          "internalType": "bool",
          "name": "isComped",
          "type": "bool"
        }
      ],
      "payable": false,
      "stateMutability": "view",
      "type": "function"
    },
    {
      "constant": true,
      "inputs": [],
      "name": "maxAssets",
      "outputs": [
        {
          "internalType": "uint256",
          "name": "",
          "type": "uint256"
        }
      ],
      "payable": false,
      "stateMutability": "view",
      "type": "function"
    },
    {
      "constant": false,
      "inputs": [
        {
          "internalType": "address",
          "name": "cToken",
          "type": "address"
        },
        {
          "internalType": "address",
          "name": "minter",
          "type": "address"
        },
        {
          "internalType": "uint256",
          "name": "mintAmount",
          "type": "uint256"
        }
      ],
      "name": "mintAllowed",
      "outputs": [
        {
          "internalType": "uint256",
          "name": "",
          "type": "uint256"
        }
      ],
      "payable": false,
      "stateMutability": "nonpayable",
      "type": "function"
    },
    {
      "constant": true,
      "inputs": [
        {
          "internalType": "address",
          "name": "",
          "type": "address"
        }
      ],
      "name": "mintGuardianPaused",
      "outputs": [
        {
          "internalType": "bool",
          "name": "",
          "type": "bool"
        }
      ],
      "payable": false,
      "stateMutability": "view",
      "type": "function"
    },
    {
      "constant": false,
      "inputs": [
        {
          "internalType": "address",
          "name": "cToken",
          "type": "address"
        },
        {
          "internalType": "address",
          "name": "minter",
          "type": "address"
        },
        {
          "internalType": "uint256",
          "name": "actualMintAmount",
          "type": "uint256"
        },
        {
          "internalType": "uint256",
          "name": "mintTokens",
          "type": "uint256"
        }
      ],
      "name": "mintVerify",
      "outputs": [],
      "payable": false,
      "stateMutability": "nonpayable",
      "type": "function"
    },
    {
      "constant": true,
      "inputs": [],
      "name": "oracle",
      "outputs": [
        {
          "internalType": "contract PriceOracle",
          "name": "",
          "type": "address"
        }
      ],
      "payable": false,
      "stateMutability": "view",
      "type": "function"
    },
    {
      "constant": true,
      "inputs": [],
      "name": "pauseGuardian",
      "outputs": [
        {
          "internalType": "address",
          "name": "",
          "type": "address"
        }
      ],
      "payable": false,
      "stateMutability": "view",
      "type": "function"
    },
    {
      "constant": true,
      "inputs": [],
      "name": "pendingAdmin",
      "outputs": [
        {
          "internalType": "address",
          "name": "",
          "type": "address"
        }
      ],
      "payable": false,
      "stateMutability": "view",
      "type": "function"
    },
    {
      "constant": true,
      "inputs": [],
      "name": "pendingComptrollerImplementation",
      "outputs": [
        {
          "internalType": "address",
          "name": "",
          "type": "address"
        }
      ],
      "payable": false,
      "stateMutability": "view",
      "type": "function"
    },
    {
      "constant": false,
      "inputs": [
        {
          "internalType": "address",
          "name": "cToken",
          "type": "address"
        },
        {
          "internalType": "address",
          "name": "redeemer",
          "type": "address"
        },
        {
          "internalType": "uint256",
          "name": "redeemTokens",
          "type": "uint256"
        }
      ],
      "name": "redeemAllowed",
      "outputs": [
        {
          "internalType": "uint256",
          "name": "",
          "type": "uint256"
        }
      ],
      "payable": false,
      "stateMutability": "nonpayable",
      "type": "function"
    },
    {
      "constant": false,
      "inputs": [
        {
          "internalType": "address",
          "name": "cToken",
          "type": "address"
        },
        {
          "internalType": "address",
          "name": "redeemer",
          "type": "address"
        },
        {
          "internalType": "uint256",
          "name": "redeemAmount",
          "type": "uint256"
        },
        {
          "internalType": "uint256",
          "name": "redeemTokens",
          "type": "uint256"
        }
      ],
      "name": "redeemVerify",
      "outputs": [],
      "payable": false,
      "stateMutability": "nonpayable",
      "type": "function"
    },
    {
      "constant": false,
      "inputs": [],
      "name": "refreshCompSpeeds",
      "outputs": [],
      "payable": false,
      "stateMutability": "nonpayable",
      "type": "function"
    },
    {
      "constant": false,
      "inputs": [
        {
          "internalType": "address",
          "name": "cToken",
          "type": "address"
        },
        {
          "internalType": "address",
          "name": "payer",
          "type": "address"
        },
        {
          "internalType": "address",
          "name": "borrower",
          "type": "address"
        },
        {
          "internalType": "uint256",
          "name": "repayAmount",
          "type": "uint256"
        }
      ],
      "name": "repayBorrowAllowed",
      "outputs": [
        {
          "internalType": "uint256",
          "name": "",
          "type": "uint256"
        }
      ],
      "payable": false,
      "stateMutability": "nonpayable",
      "type": "function"
    },
    {
      "constant": false,
      "inputs": [
        {
          "internalType": "address",
          "name": "cToken",
          "type": "address"
        },
        {
          "internalType": "address",
          "name": "payer",
          "type": "address"
        },
        {
          "internalType": "address",
          "name": "borrower",
          "type": "address"
        },
        {
          "internalType": "uint256",
          "name": "actualRepayAmount",
          "type": "uint256"
        },
        {
          "internalType": "uint256",
          "name": "borrowerIndex",
          "type": "uint256"
        }
      ],
      "name": "repayBorrowVerify",
      "outputs": [],
      "payable": false,
      "stateMutability": "nonpayable",
      "type": "function"
    },
    {
      "constant": false,
      "inputs": [
        {
          "internalType": "address",
          "name": "cTokenCollateral",
          "type": "address"
        },
        {
          "internalType": "address",
          "name": "cTokenBorrowed",
          "type": "address"
        },
        {
          "internalType": "address",
          "name": "liquidator",
          "type": "address"
        },
        {
          "internalType": "address",
          "name": "borrower",
          "type": "address"
        },
        {
          "internalType": "uint256",
          "name": "seizeTokens",
          "type": "uint256"
        }
      ],
      "name": "seizeAllowed",
      "outputs": [
        {
          "internalType": "uint256",
          "name": "",
          "type": "uint256"
        }
      ],
      "payable": false,
      "stateMutability": "nonpayable",
      "type": "function"
    },
    {
      "constant": true,
      "inputs": [],
      "name": "seizeGuardianPaused",
      "outputs": [
        {
          "internalType": "bool",
          "name": "",
          "type": "bool"
        }
      ],
      "payable": false,
      "stateMutability": "view",
      "type": "function"
    },
    {
      "constant": false,
      "inputs": [
        {
          "internalType": "address",
          "name": "cTokenCollateral",
          "type": "address"
        },
        {
          "internalType": "address",
          "name": "cTokenBorrowed",
          "type": "address"
        },
        {
          "internalType": "address",
          "name": "liquidator",
          "type": "address"
        },
        {
          "internalType": "address",
          "name": "borrower",
          "type": "address"
        },
        {
          "internalType": "uint256",
          "name": "seizeTokens",
          "type": "uint256"
        }
      ],
      "name": "seizeVerify",
      "outputs": [],
      "payable": false,
      "stateMutability": "nonpayable",
      "type": "function"
    },
    {
      "constant": false,
      "inputs": [
        {
          "internalType": "address",
          "name": "cToken",
          "type": "address"
        },
        {
          "internalType": "address",
          "name": "src",
          "type": "address"
        },
        {
          "internalType": "address",
          "name": "dst",
          "type": "address"
        },
        {
          "internalType": "uint256",
          "name": "transferTokens",
          "type": "uint256"
        }
      ],
      "name": "transferAllowed",
      "outputs": [
        {
          "internalType": "uint256",
          "name": "",
          "type": "uint256"
        }
      ],
      "payable": false,
      "stateMutability": "nonpayable",
      "type": "function"
    },
    {
      "constant": true,
      "inputs": [],
      "name": "transferGuardianPaused",
      "outputs": [
        {
          "internalType": "bool",
          "name": "",
          "type": "bool"
        }
      ],
      "payable": false,
      "stateMutability": "view",
      "type": "function"
    },
    {
      "constant": false,
      "inputs": [
        {
          "internalType": "address",
          "name": "cToken",
          "type": "address"
        },
        {
          "internalType": "address",
          "name": "src",
          "type": "address"
        },
        {
          "internalType": "address",
          "name": "dst",
          "type": "address"
        },
        {
          "internalType": "uint256",
          "name": "transferTokens",
          "type": "uint256"
        }
      ],
      "name": "transferVerify",
      "outputs": [],
      "payable": false,
      "stateMutability": "nonpayable",
      "type": "function"
    },
    {
      "constant": false,
      "inputs": [
        {
          "internalType": "address",
          "name": "contributor",
          "type": "address"
        }
      ],
      "name": "updateContributorRewards",
      "outputs": [],
      "payable": false,
      "stateMutability": "nonpayable",
      "type": "function"
    }
  ],
  "bytecode": {
    "object": "0x608060405234801561001057600080fd5b50600080546001600160a01b03191633179055615dda80620000336000396000f3fe608060405234801561001057600080fd5b50600436106104745760003560e01c80636d154ea511610257578063b21be7fd11610146578063da3d454c116100c3578063e875544611610087578063e8755446146112e1578063e9af0292146112e9578063eabe7d911461130f578063ede4edd014611345578063f851a4401461136b57610474565b8063da3d454c14611243578063dce1544914611279578063dcfbc0c7146112a5578063e4028eee146112ad578063e6653f3d146112d957610474565b8063c488847b1161010a578063c488847b146110b9578063ca0af04314611108578063cc7ebdc414611136578063ce485c5e1461115c578063d02f7351146111fd57610474565b8063b21be7fd14610f80578063bb82aa5e14610fae578063bdcdc25814610fb6578063bea6b8b814610ff2578063c29982381461101857610474565b8063929fe9a1116101d4578063a7f0e23111610198578063a7f0e23114610ece578063aa90075414610ef2578063abfceffc14610efa578063ac0b0bb714610f70578063b0772d0b14610f7857610474565b8063929fe9a114610e4457806394b2294b14610e72578063986ab83814610e7a5780639d1b5a0a14610ea0578063a76b3fda14610ea857610474565b80637dc0d1d01161021b5780637dc0d1d014610da757806387f7630314610daf5780638c57804e14610db75780638e8f294b14610ddd5780638ebf636414610e2557610474565b80636d154ea514610ce75780636d35bf9114610d0d578063731f0c2b14610d53578063741b252514610d79578063747026c914610d9f57610474565b806347ef3b3b11610373578063598ee1cb116102f0578063607ef6c1116102b4578063607ef6c114610a565780636810dfa614610b145780636a49111214610c405780636a56947e14610c5d5780636b79c38d14610c9957610474565b8063598ee1cb146109625780635c7786051461098e5780635ec88c79146109c45780635f5af1aa146109ea5780635fc7e71e14610a1057610474565b80634ef4c3e1116103375780634ef4c3e1146108905780634fd42e17146108c657806351dff989146108e357806352d84d1e1461091f57806355ee1fe11461093c57610474565b806347ef3b3b146107b45780634a584432146108005780634ada90af146108265780634d8e50371461082e5780634e79238f1461083657610474565b806326782247116104015780633aa729b4116103c55780633aa729b4146107145780633bcf7ec11461073a5780633c94786f1461076857806341c728b91461077057806342cbb15c146107ac57610474565b8063267822471461067e57806327efe3cb146106865780632d70db78146106b2578063317b0b77146106d1578063391957d7146106ee57610474565b80631d7b33d7116104485780631d7b33d71461059c5780631ededc91146105d457806321af45691461061657806324008a621461063a57806324a3d6221461067657610474565b80627e3dd21461047957806318c882a5146104955780631c3db2e0146104c35780631d504dc614610576575b600080fd5b610481611373565b604080519115158252519081900360200190f35b610481600480360360408110156104ab57600080fd5b506001600160a01b0381351690602001351515611378565b610574600480360360408110156104d957600080fd5b6001600160a01b038235169190810190604081016020820135600160201b81111561050357600080fd5b82018360208201111561051557600080fd5b803590602001918460208302840111600160201b8311171561053657600080fd5b919080806020026020016040519081016040528093929190818152602001838360200280828437600092019190915250929550611518945050505050565b005b6105746004803603602081101561058c57600080fd5b50356001600160a01b031661157a565b6105c2600480360360208110156105b257600080fd5b50356001600160a01b03166116d9565b60408051918252519081900360200190f35b610574600480360360a08110156105ea57600080fd5b506001600160a01b038135811691602081013582169160408201351690606081013590608001356116eb565b61061e6116f2565b604080516001600160a01b039092168252519081900360200190f35b6105c26004803603608081101561065057600080fd5b506001600160a01b03813581169160208101358216916040820135169060600135611701565b61061e6117ca565b61061e6117d9565b6105746004803603604081101561069c57600080fd5b506001600160a01b0381351690602001356117e8565b610481600480360360208110156106c857600080fd5b503515156118eb565b6105c2600480360360208110156106e757600080fd5b5035611a25565b6105746004803603602081101561070457600080fd5b50356001600160a01b0316611ad2565b6105746004803603602081101561072a57600080fd5b50356001600160a01b0316611b7e565b6104816004803603604081101561075057600080fd5b506001600160a01b0381351690602001351515611caf565b610481611e4a565b6105746004803603608081101561078657600080fd5b506001600160a01b03813581169160208101359091169060408101359060600135611e5a565b6105c2611e60565b610574600480360360c08110156107ca57600080fd5b506001600160a01b0381358116916020810135821691604082013581169160608101359091169060808101359060a00135611e65565b6105c26004803603602081101561081657600080fd5b50356001600160a01b0316611e6d565b6105c2611e7f565b610574611e85565b6108726004803603608081101561084c57600080fd5b506001600160a01b03813581169160208101359091169060408101359060600135611ecd565b60408051938452602084019290925282820152519081900360600190f35b6105c2600480360360608110156108a657600080fd5b506001600160a01b03813581169160208101359091169060400135611f07565b6105c2600480360360208110156108dc57600080fd5b5035611faf565b610574600480360360808110156108f957600080fd5b506001600160a01b0381358116916020810135909116906040810135906060013561201f565b61061e6004803603602081101561093557600080fd5b5035612073565b6105c26004803603602081101561095257600080fd5b50356001600160a01b031661209a565b6105746004803603604081101561097857600080fd5b506001600160a01b03813516906020013561211f565b610574600480360360608110156109a457600080fd5b506001600160a01b0381358116916020810135909116906040013561220a565b610872600480360360208110156109da57600080fd5b50356001600160a01b031661220f565b6105c260048036036020811015610a0057600080fd5b50356001600160a01b0316612244565b6105c2600480360360a0811015610a2657600080fd5b506001600160a01b03813581169160208101358216916040820135811691606081013590911690608001356122c8565b61057460048036036040811015610a6c57600080fd5b810190602081018135600160201b811115610a8657600080fd5b820183602082011115610a9857600080fd5b803590602001918460208302840111600160201b83111715610ab957600080fd5b919390929091602081019035600160201b811115610ad657600080fd5b820183602082011115610ae857600080fd5b803590602001918460208302840111600160201b83111715610b0957600080fd5b50909250905061242d565b61057460048036036080811015610b2a57600080fd5b810190602081018135600160201b811115610b4457600080fd5b820183602082011115610b5657600080fd5b803590602001918460208302840111600160201b83111715610b7757600080fd5b9190808060200260200160405190810160405280939291908181526020018383602002808284376000920191909152509295949360208101935035915050600160201b811115610bc657600080fd5b820183602082011115610bd857600080fd5b803590602001918460208302840111600160201b83111715610bf957600080fd5b9190808060200260200160405190810160405280939291908181526020018383602002808284376000920191909152509295505050508035151591506020013515156125bd565b61057460048036036020811015610c5657600080fd5b5035612766565b61057460048036036080811015610c7357600080fd5b506001600160a01b03813581169160208101358216916040820135169060600135611e5a565b610cbf60048036036020811015610caf57600080fd5b50356001600160a01b031661280a565b604080516001600160e01b03909316835263ffffffff90911660208301528051918290030190f35b61048160048036036020811015610cfd57600080fd5b50356001600160a01b0316612834565b610574600480360360a0811015610d2357600080fd5b506001600160a01b03813581169160208101358216916040820135811691606081013590911690608001356116eb565b61048160048036036020811015610d6957600080fd5b50356001600160a01b0316612849565b61057460048036036020811015610d8f57600080fd5b50356001600160a01b031661285e565b6105c2612921565b61061e61292c565b61048161293b565b610cbf60048036036020811015610dcd57600080fd5b50356001600160a01b031661294b565b610e0360048036036020811015610df357600080fd5b50356001600160a01b0316612975565b6040805193151584526020840192909252151582820152519081900360600190f35b61048160048036036020811015610e3b57600080fd5b5035151561299b565b61048160048036036040811015610e5a57600080fd5b506001600160a01b0381358116916020013516612ad4565b6105c2612b07565b6105c260048036036020811015610e9057600080fd5b50356001600160a01b0316612b0d565b61061e612b1f565b6105c260048036036020811015610ebe57600080fd5b50356001600160a01b0316612b37565b610ed6612c94565b604080516001600160e01b039092168252519081900360200190f35b6105c2612ca7565b610f2060048036036020811015610f1057600080fd5b50356001600160a01b0316612cad565b60408051602080825283518183015283519192839290830191858101910280838360005b83811015610f5c578181015183820152602001610f44565b505050509050019250505060405180910390f35b610481612d36565b610f20612d46565b6105c260048036036040811015610f9657600080fd5b506001600160a01b0381358116916020013516612da8565b61061e612dc5565b6105c260048036036080811015610fcc57600080fd5b506001600160a01b03813581169160208101358216916040820135169060600135612dd4565b6105c26004803603602081101561100857600080fd5b50356001600160a01b0316612e68565b610f206004803603602081101561102e57600080fd5b810190602081018135600160201b81111561104857600080fd5b82018360208201111561105a57600080fd5b803590602001918460208302840111600160201b8311171561107b57600080fd5b919080806020026020016040519081016040528093929190818152602001838360200280828437600092019190915250929550612e7a945050505050565b6110ef600480360360608110156110cf57600080fd5b506001600160a01b03813581169160208101359091169060400135612f11565b6040805192835260208301919091528051918290030190f35b6105c26004803603604081101561111e57600080fd5b506001600160a01b0381358116916020013516613139565b6105c26004803603602081101561114c57600080fd5b50356001600160a01b0316613156565b6105746004803603602081101561117257600080fd5b810190602081018135600160201b81111561118c57600080fd5b82018360208201111561119e57600080fd5b803590602001918460208302840111600160201b831117156111bf57600080fd5b919080806020026020016040519081016040528093929190818152602001838360200280828437600092019190915250929550613168945050505050565b6105c2600480360360a081101561121357600080fd5b506001600160a01b03813581169160208101358216916040820135811691606081013590911690608001356131fa565b6105c26004803603606081101561125957600080fd5b506001600160a01b038135811691602081013590911690604001356133b2565b61061e6004803603604081101561128f57600080fd5b506001600160a01b03813516906020013561378e565b61061e6137c3565b6105c2600480360360408110156112c357600080fd5b506001600160a01b0381351690602001356137d2565b610481613982565b6105c2613992565b610574600480360360208110156112ff57600080fd5b50356001600160a01b0316613998565b6105c26004803603606081101561132557600080fd5b506001600160a01b038135811691602081013590911690604001356139fc565b6105c26004803603602081101561135b57600080fd5b50356001600160a01b0316613a39565b61061e613d4c565b600181565b6001600160a01b03821660009081526009602052604081205460ff166113cf5760405162461bcd60e51b8152600401808060200182810382526028815260200180615c5f6028913960400191505060405180910390fd5b600a546001600160a01b03163314806113f257506000546001600160a01b031633145b61142d5760405162461bcd60e51b8152600401808060200182810382526027815260200180615cb86027913960400191505060405180910390fd5b6000546001600160a01b031633148061144857506001821515145b611492576040805162461bcd60e51b81526020600482015260166024820152756f6e6c792061646d696e2063616e20756e706175736560501b604482015290519081900360640190fd5b6001600160a01b0383166000818152600c6020908152604091829020805486151560ff199091168117909155825193845283830152606090830181905260069083015265426f72726f7760d01b6080830152517f71aec636243f9709bb0007ae15e9afb8150ab01716d75fd7573be5cc096e03b09181900360a00190a150805b92915050565b60408051600180825281830190925260609160208083019080388339019050509050828160008151811061154857fe5b60200260200101906001600160a01b031690816001600160a01b03168152505061157581836001806125bd565b505050565b806001600160a01b031663f851a4406040518163ffffffff1660e01b815260040160206040518083038186803b1580156115b357600080fd5b505afa1580156115c7573d6000803e3d6000fd5b505050506040513d60208110156115dd57600080fd5b50516001600160a01b031633146116255760405162461bcd60e51b8152600401808060200182810382526027815260200180615d7f6027913960400191505060405180910390fd5b806001600160a01b031663c1e803346040518163ffffffff1660e01b8152600401602060405180830381600087803b15801561166057600080fd5b505af1158015611674573d6000803e3d6000fd5b505050506040513d602081101561168a57600080fd5b5051156116d6576040805162461bcd60e51b815260206004820152601560248201527418da185b99d9481b9bdd08185d5d1a1bdc9a5e9959605a1b604482015290519081900360640190fd5b50565b600f6020526000908152604090205481565b5050505050565b6015546001600160a01b031681565b6001600160a01b03841660009081526009602052604081205460ff16611729575060096117c2565b611731615b9f565b6040518060200160405280876001600160a01b031663aa5af0fd6040518163ffffffff1660e01b815260040160206040518083038186803b15801561177557600080fd5b505afa158015611789573d6000803e3d6000fd5b505050506040513d602081101561179f57600080fd5b5051905290506117af8682613d5b565b6117bc8685836000613fe3565b60009150505b949350505050565b600a546001600160a01b031681565b6001546001600160a01b031681565b6117f06141cd565b611841576040805162461bcd60e51b815260206004820152601960248201527f6f6e6c792061646d696e2063616e206772616e7420636f6d7000000000000000604482015290519081900360640190fd5b600061184d83836141f6565b905080156118a2576040805162461bcd60e51b815260206004820152601b60248201527f696e73756666696369656e7420636f6d7020666f72206772616e740000000000604482015290519081900360640190fd5b604080516001600160a01b03851681526020810184905281517f98b2f82a3a07f223a0be64b3d0f47711c64dccd1feafb94aa28156b38cd9695c929181900390910190a1505050565b600a546000906001600160a01b031633148061191157506000546001600160a01b031633145b61194c5760405162461bcd60e51b8152600401808060200182810382526027815260200180615cb86027913960400191505060405180910390fd5b6000546001600160a01b031633148061196757506001821515145b6119b1576040805162461bcd60e51b81526020600482015260166024820152756f6e6c792061646d696e2063616e20756e706175736560501b604482015290519081900360640190fd5b600a8054831515600160b81b810260ff60b81b1990921691909117909155604080516020810192909252808252600582820152645365697a6560d81b6060830152517fef159d9a32b2472e32b098f954f3ce62d232939f1c207070b584df1814de2de09181900360800190a150805b919050565b600080546001600160a01b03163314611a85576040805162461bcd60e51b815260206004820152601f60248201527f6f6e6c792061646d696e2063616e2073657420636c6f736520666163746f7200604482015290519081900360640190fd5b6005805490839055604080518281526020810185905281517f3b9670cf975d26958e754b57098eaa2ac914d8d2a31b83257997b9f346110fd9929181900390910190a160005b9392505050565b6000546001600160a01b03163314611b1b5760405162461bcd60e51b8152600401808060200182810382526026815260200180615cdf6026913960400191505060405180910390fd5b601580546001600160a01b038381166001600160a01b0319831681179093556040805191909216808252602082019390935281517feda98690e518e9a05f8ec6837663e188211b2da8f4906648b323f2c1d4434e29929181900390910190a15050565b6000546001600160a01b03163314611bdd576040805162461bcd60e51b815260206004820152601f60248201527f6f6e6c792061646d696e2063616e2064726f7020636f6d70206d61726b657400604482015290519081900360640190fd5b6001600160a01b0381166000908152600960205260409020600381015460ff161515600114611c53576040805162461bcd60e51b815260206004820152601b60248201527f6d61726b6574206973206e6f74206120636f6d70206d61726b65740000000000604482015290519081900360640190fd5b60038101805460ff19169055604080516001600160a01b03841681526000602082015281517f93c1f3e36ed71139f466a4ce8c9751790e2e33f5afb2df0dcfb3aeabe55d5aa2929181900390910190a1611cab614323565b5050565b6001600160a01b03821660009081526009602052604081205460ff16611d065760405162461bcd60e51b8152600401808060200182810382526028815260200180615c5f6028913960400191505060405180910390fd5b600a546001600160a01b0316331480611d2957506000546001600160a01b031633145b611d645760405162461bcd60e51b8152600401808060200182810382526027815260200180615cb86027913960400191505060405180910390fd5b6000546001600160a01b0316331480611d7f57506001821515145b611dc9576040805162461bcd60e51b81526020600482015260166024820152756f6e6c792061646d696e2063616e20756e706175736560501b604482015290519081900360640190fd5b6001600160a01b0383166000818152600b6020908152604091829020805486151560ff199091168117909155825193845283830152606090830181905260049083015263135a5b9d60e21b6080830152517f71aec636243f9709bb0007ae15e9afb8150ab01716d75fd7573be5cc096e03b09181900360a00190a150919050565b600a54600160a01b900460ff1681565b50505050565b435b90565b505050505050565b60166020526000908152604090205481565b60065481565b333214611ec35760405162461bcd60e51b8152600401808060200182810382526031815260200180615c876031913960400191505060405180910390fd5b611ecb614323565b565b600080600080600080611ee28a8a8a8a6146e8565b925092509250826011811115611ef457fe5b95509093509150505b9450945094915050565b6001600160a01b0383166000908152600b602052604081205460ff1615611f66576040805162461bcd60e51b815260206004820152600e60248201526d1b5a5b9d081a5cc81c185d5cd95960921b604482015290519081900360640190fd5b6001600160a01b03841660009081526009602052604090205460ff16611f905760095b9050611acb565b611f9984614a20565b611fa584846000614c9e565b6000949350505050565b600080546001600160a01b03163314611fd557611fce6001600b614e96565b9050611a20565b6006805490839055604080518281526020810185905281517faeba5a6c40a8ac138134bff1aaa65debf25971188a58804bad717f82f0ec1316929181900390910190a16000611acb565b8015801561202d5750600082115b15611e5a576040805162461bcd60e51b815260206004820152601160248201527072656465656d546f6b656e73207a65726f60781b604482015290519081900360640190fd5b600d818154811061208057fe5b6000918252602090912001546001600160a01b0316905081565b600080546001600160a01b031633146120b957611fce60016010614e96565b600480546001600160a01b038481166001600160a01b0319831681179093556040805191909216808252602082019390935281517fd52b2b9b7e9ee655fcb95d2e5b9e0c9f69e7ef2b8e9d2d0ea78402d576d22e22929181900390910190a16000611acb565b6121276141cd565b612178576040805162461bcd60e51b815260206004820152601d60248201527f6f6e6c792061646d696e2063616e2073657420636f6d70207370656564000000604482015290519081900360640190fd5b6121818261285e565b806121a0576001600160a01b0382166000908152601860205260408120555b6121a8611e60565b6001600160a01b03831660008181526018602090815260408083209490945560178152908390208490558251848152925191927f386537fa92edc3319af95f1f904dcf1900021e4f3f4e08169a577a09076e66b3929081900390910190a25050565b611575565b6000806000806000806122268760008060006146e8565b92509250925082601181111561223857fe5b97919650945092505050565b600080546001600160a01b0316331461226357611fce60016013614e96565b600a80546001600160a01b038481166001600160a01b0319831617928390556040805192821680845293909116602083015280517f0613b6ee6a04f0d09f390e4d9318894b9f6ac7fd83897cd8d18896ba579c401e9281900390910190a16000611acb565b6001600160a01b03851660009081526009602052604081205460ff16158061230957506001600160a01b03851660009081526009602052604090205460ff16155b156123185760095b9050612424565b60008061232485614efc565b9193509091506000905082601181111561233a57fe5b146123545781601181111561234b57fe5b92505050612424565b8061236057600361234b565b6000886001600160a01b03166395dd9193876040518263ffffffff1660e01b815260040180826001600160a01b03166001600160a01b0316815260200191505060206040518083038186803b1580156123b857600080fd5b505afa1580156123cc573d6000803e3d6000fd5b505050506040513d60208110156123e257600080fd5b5051604080516020810190915260055481529091506000906124049083614f1c565b90508086111561241b576011945050505050612424565b60009450505050505b95945050505050565b6000546001600160a01b031633148061245057506015546001600160a01b031633145b61248b5760405162461bcd60e51b8152600401808060200182810382526035815260200180615d056035913960400191505060405180910390fd5b8281811580159061249b57508082145b6124dc576040805162461bcd60e51b815260206004820152600d60248201526c1a5b9d985b1a59081a5b9c1d5d609a1b604482015290519081900360640190fd5b60005b828110156125b4578484828181106124f357fe5b905060200201356016600089898581811061250a57fe5b905060200201356001600160a01b03166001600160a01b03166001600160a01b031681526020019081526020016000208190555086868281811061254a57fe5b905060200201356001600160a01b03166001600160a01b03167f6f1951b2aad10f3fc81b86d91105b413a5b3f847a34bbc5ce1904201b14438f686868481811061259057fe5b905060200201356040518082815260200191505060405180910390a26001016124df565b50505050505050565b60005b83518110156116eb5760008482815181106125d757fe5b6020908102919091018101516001600160a01b0381166000908152600990925260409091205490915060ff1661264c576040805162461bcd60e51b81526020600482015260156024820152741b585c9ad95d081b5d5cdd081899481b1a5cdd1959605a1b604482015290519081900360640190fd5b600184151514156127145761265f615b9f565b6040518060200160405280836001600160a01b031663aa5af0fd6040518163ffffffff1660e01b815260040160206040518083038186803b1580156126a357600080fd5b505afa1580156126b7573d6000803e3d6000fd5b505050506040513d60208110156126cd57600080fd5b5051905290506126dd8282613d5b565b60005b875181101561271157612709838983815181106126f957fe5b6020026020010151846001613fe3565b6001016126e0565b50505b6001831515141561275d5761272881614a20565b60005b865181101561275b576127538288838151811061274457fe5b60200260200101516001614c9e565b60010161272b565b505b506001016125c0565b61276e6141cd565b6127bf576040805162461bcd60e51b815260206004820152601f60248201527f6f6e6c792061646d696e2063616e206368616e676520636f6d70207261746500604482015290519081900360640190fd5b600e805490829055604080518281526020810184905281517fc227c9272633c3a307d9845bf2bc2509cefb20d655b5f3c1002d8e1e3f22c8b0929181900390910190a1611cab614323565b6010602052600090815260409020546001600160e01b03811690600160e01b900463ffffffff1682565b600c6020526000908152604090205460ff1681565b600b6020526000908152604090205460ff1681565b6001600160a01b03811660009081526017602052604081205490612880611e60565b6001600160a01b038416600090815260186020526040812054919250906128a8908390614f3b565b90506000811180156128ba5750600083115b15611e5a5760006128cb8285614f75565b6001600160a01b038616600090815260146020526040812054919250906128f29083614fb7565b6001600160a01b0387166000908152601460209081526040808320939093556018905220849055505050505050565b66038d7ea4c6800081565b6004546001600160a01b031681565b600a54600160b01b900460ff1681565b6011602052600090815260409020546001600160e01b03811690600160e01b900463ffffffff1682565b60096020526000908152604090208054600182015460039092015460ff91821692911683565b600a546000906001600160a01b03163314806129c157506000546001600160a01b031633145b6129fc5760405162461bcd60e51b8152600401808060200182810382526027815260200180615cb86027913960400191505060405180910390fd5b6000546001600160a01b0316331480612a1757506001821515145b612a61576040805162461bcd60e51b81526020600482015260166024820152756f6e6c792061646d696e2063616e20756e706175736560501b604482015290519081900360640190fd5b600a8054831515600160b01b810260ff60b01b1990921691909117909155604080516020810192909252808252600882820152672a3930b739b332b960c11b6060830152517fef159d9a32b2472e32b098f954f3ce62d232939f1c207070b584df1814de2de09181900360800190a15090565b6001600160a01b038082166000908152600960209081526040808320938616835260029093019052205460ff1692915050565b60075481565b60176020526000908152604090205481565b73c00e94cb662c3520282e6f5717214004a7f2688890565b600080546001600160a01b03163314612b5657611fce60016012614e96565b6001600160a01b03821660009081526009602052604090205460ff1615612b8357611fce600a6011614e96565b816001600160a01b031663fe9c44ae6040518163ffffffff1660e01b815260040160206040518083038186803b158015612bbc57600080fd5b505afa158015612bd0573d6000803e3d6000fd5b505050506040513d6020811015612be657600080fd5b5050604080516060810182526001808252600060208381018281528486018381526001600160a01b03891684526009909252949091209251835490151560ff19918216178455935191830191909155516003909101805491151591909216179055612c5082614fed565b604080516001600160a01b038416815290517fcf583bb0c569eb967f806b11601c4cb93c10310485c67add5f8362c2f212321f9181900360200190a1600092915050565b6ec097ce7bc90715b34b9f100000000081565b600e5481565b60608060086000846001600160a01b03166001600160a01b03168152602001908152602001600020805480602002602001604051908101604052809291908181526020018280548015612d2957602002820191906000526020600020905b81546001600160a01b03168152600190910190602001808311612d0b575b5093979650505050505050565b600a54600160b81b900460ff1681565b6060600d805480602002602001604051908101604052809291908181526020018280548015612d9e57602002820191906000526020600020905b81546001600160a01b03168152600190910190602001808311612d80575b5050505050905090565b601260209081526000928352604080842090915290825290205481565b6002546001600160a01b031681565b600a54600090600160b01b900460ff1615612e2b576040805162461bcd60e51b81526020600482015260126024820152711d1c985b9cd9995c881a5cc81c185d5cd95960721b604482015290519081900360640190fd5b6000612e388686856150cb565b90508015612e475790506117c2565b612e5086614a20565b612e5c86866000614c9e565b6117bc86856000614c9e565b60186020526000908152604090205481565b6060600082519050606081604051908082528060200260200182016040528015612eae578160200160208202803883390190505b50905060005b82811015612f09576000858281518110612eca57fe5b60200260200101519050612ede8133615177565b6011811115612ee957fe5b838381518110612ef557fe5b602090810291909101015250600101612eb4565b509392505050565b600480546040805163fc57d4df60e01b81526001600160a01b038781169482019490945290516000938493849391169163fc57d4df91602480820192602092909190829003018186803b158015612f6757600080fd5b505afa158015612f7b573d6000803e3d6000fd5b505050506040513d6020811015612f9157600080fd5b5051600480546040805163fc57d4df60e01b81526001600160a01b038a8116948201949094529051939450600093929091169163fc57d4df91602480820192602092909190829003018186803b158015612fea57600080fd5b505afa158015612ffe573d6000803e3d6000fd5b505050506040513d602081101561301457600080fd5b50519050811580613023575080155b1561303857600d935060009250613131915050565b6000866001600160a01b031663182df0f56040518163ffffffff1660e01b815260040160206040518083038186803b15801561307357600080fd5b505afa158015613087573d6000803e3d6000fd5b505050506040513d602081101561309d57600080fd5b5051905060006130ab615b9f565b6130b3615b9f565b6130bb615b9f565b6130e3604051806020016040528060065481525060405180602001604052808a81525061526d565b925061310b60405180602001604052808881525060405180602001604052808881525061526d565b915061311783836152ac565b9050613123818b614f1c565b600099509750505050505050505b935093915050565b601360209081526000928352604080842090915290825290205481565b60146020526000908152604090205481565b6131706141cd565b6131c1576040805162461bcd60e51b815260206004820152601e60248201527f6f6e6c792061646d696e2063616e2061646420636f6d70206d61726b65740000604482015290519081900360640190fd5b60005b81518110156131f1576131e98282815181106131dc57fe5b60200260200101516152e8565b6001016131c4565b506116d6614323565b600a54600090600160b81b900460ff161561324e576040805162461bcd60e51b815260206004820152600f60248201526e1cd95a5e99481a5cc81c185d5cd959608a1b604482015290519081900360640190fd5b6001600160a01b03861660009081526009602052604090205460ff16158061328f57506001600160a01b03851660009081526009602052604090205460ff16155b1561329b576009612311565b846001600160a01b0316635fe3b5676040518163ffffffff1660e01b815260040160206040518083038186803b1580156132d457600080fd5b505afa1580156132e8573d6000803e3d6000fd5b505050506040513d60208110156132fe57600080fd5b505160408051635fe3b56760e01b815290516001600160a01b0392831692891691635fe3b567916004808301926020929190829003018186803b15801561334457600080fd5b505afa158015613358573d6000803e3d6000fd5b505050506040513d602081101561336e57600080fd5b50516001600160a01b031614613385576002612311565b61338e86614a20565b61339a86846000614c9e565b6133a686856000614c9e565b60009695505050505050565b6001600160a01b0383166000908152600c602052604081205460ff1615613413576040805162461bcd60e51b815260206004820152601060248201526f189bdc9c9bddc81a5cc81c185d5cd95960821b604482015290519081900360640190fd5b6001600160a01b03841660009081526009602052604090205460ff1661343a576009611f89565b6001600160a01b038085166000908152600960209081526040808320938716835260029093019052205460ff1661352a57336001600160a01b038516146134c0576040805162461bcd60e51b815260206004820152601560248201527439b2b73232b91036bab9ba1031329031aa37b5b2b760591b604482015290519081900360640190fd5b60006134cc3385615177565b905060008160118111156134dc57fe5b146134f5578060118111156134ed57fe5b915050611acb565b6001600160a01b038086166000908152600960209081526040808320938816835260029093019052205460ff1661352857fe5b505b600480546040805163fc57d4df60e01b81526001600160a01b03888116948201949094529051929091169163fc57d4df91602480820192602092909190829003018186803b15801561357b57600080fd5b505afa15801561358f573d6000803e3d6000fd5b505050506040513d60208110156135a557600080fd5b50516135b257600d611f89565b6001600160a01b038416600090815260166020526040902054801561369f576000856001600160a01b03166347bd37186040518163ffffffff1660e01b815260040160206040518083038186803b15801561360c57600080fd5b505afa158015613620573d6000803e3d6000fd5b505050506040513d602081101561363657600080fd5b5051905060006136468286614fb7565b905082811061369c576040805162461bcd60e51b815260206004820152601960248201527f6d61726b657420626f72726f7720636170207265616368656400000000000000604482015290519081900360640190fd5b50505b6000806136af86886000886146e8565b919350909150600090508260118111156136c557fe5b146136e0578160118111156136d657fe5b9350505050611acb565b80156136ed5760046136d6565b6136f5615b9f565b6040518060200160405280896001600160a01b031663aa5af0fd6040518163ffffffff1660e01b815260040160206040518083038186803b15801561373957600080fd5b505afa15801561374d573d6000803e3d6000fd5b505050506040513d602081101561376357600080fd5b5051905290506137738882613d5b565b6137808888836000613fe3565b600098975050505050505050565b600860205281600052604060002081815481106137a757fe5b6000918252602090912001546001600160a01b03169150829050565b6003546001600160a01b031681565b600080546001600160a01b031633146137f8576137f160016006614e96565b9050611512565b6001600160a01b0383166000908152600960205260409020805460ff1661382d5761382560096007614e96565b915050611512565b613835615b9f565b50604080516020810190915283815261384c615b9f565b506040805160208101909152670c7d713b49da0000815261386d8183615603565b156138885761387e60066008614e96565b9350505050611512565b84158015906139115750600480546040805163fc57d4df60e01b81526001600160a01b038a8116948201949094529051929091169163fc57d4df91602480820192602092909190829003018186803b1580156138e357600080fd5b505afa1580156138f7573d6000803e3d6000fd5b505050506040513d602081101561390d57600080fd5b5051155b156139225761387e600d6009614e96565b60018301805490869055604080516001600160a01b03891681526020810183905280820188905290517f70483e6592cd5182d45ac970e05bc62cdcc90e9d8ef2c2dbe686cf383bcd7fc59181900360600190a16000979650505050505050565b600a54600160a81b900460ff1681565b60055481565b6116d681600d8054806020026020016040519081016040528092919081815260200182805480156139f257602002820191906000526020600020905b81546001600160a01b031681526001909101906020018083116139d4575b5050505050611518565b600080613a0a8585856150cb565b90508015613a19579050611acb565b613a2285614a20565b613a2e85856000614c9e565b600095945050505050565b6000808290506000806000836001600160a01b031663c37f68e2336040518263ffffffff1660e01b815260040180826001600160a01b03166001600160a01b0316815260200191505060806040518083038186803b158015613a9a57600080fd5b505afa158015613aae573d6000803e3d6000fd5b505050506040513d6080811015613ac457600080fd5b508051602082015160409092015190945090925090508215613b175760405162461bcd60e51b8152600401808060200182810382526025815260200180615d3a6025913960400191505060405180910390fd5b8015613b3457613b29600c6002614e96565b945050505050611a20565b6000613b418733856150cb565b90508015613b6257613b56600e60038361560a565b95505050505050611a20565b6001600160a01b0385166000908152600960209081526040808320338452600281019092529091205460ff16613ba15760009650505050505050611a20565b3360009081526002820160209081526040808320805460ff191690556008825291829020805483518184028101840190945280845260609392830182828015613c1357602002820191906000526020600020905b81546001600160a01b03168152600190910190602001808311613bf5575b5050835193945083925060009150505b82811015613c6857896001600160a01b0316848281518110613c4157fe5b60200260200101516001600160a01b03161415613c6057809150613c68565b600101613c23565b50818110613c7257fe5b336000908152600860205260409020805481906000198101908110613c9357fe5b9060005260206000200160009054906101000a90046001600160a01b0316818381548110613cbd57fe5b600091825260209091200180546001600160a01b0319166001600160a01b03929092169190911790558054613cf6826000198301615bb2565b50604080516001600160a01b038c16815233602082015281517fe699a64c18b07ac5b7301aa273f36a2287239eb9501d81950672794afba29a0d929181900390910190a160009c9b505050505050505050505050565b6000546001600160a01b031681565b6001600160a01b0382166000908152601160209081526040808320600f9092528220549091613d88611e60565b8354909150600090613da8908390600160e01b900463ffffffff16614f3b565b9050600081118015613dba5750600083115b15613f89576000613e2f876001600160a01b03166347bd37186040518163ffffffff1660e01b815260040160206040518083038186803b158015613dfd57600080fd5b505afa158015613e11573d6000803e3d6000fd5b505050506040513d6020811015613e2757600080fd5b505187615670565b90506000613e3d8386614f75565b9050613e47615b9f565b60008311613e645760405180602001604052806000815250613e6e565b613e6e828461568e565b9050613e78615b9f565b604080516020810190915288546001600160e01b03168152613e9a90836156c3565b90506040518060400160405280613eea83600001516040518060400160405280601a81526020017f6e657720696e64657820657863656564732032323420626974730000000000008152506156e8565b6001600160e01b03168152602001613f25886040518060400160405280601c8152602001600080516020615d5f833981519152815250615782565b63ffffffff9081169091526001600160a01b038c166000908152601160209081526040909120835181549490920151909216600160e01b026001600160e01b039182166001600160e01b0319909416939093171691909117905550611e6592505050565b8015611e6557613fbc826040518060400160405280601c8152602001600080516020615d5f833981519152815250615782565b845463ffffffff91909116600160e01b026001600160e01b03909116178455505050505050565b6001600160a01b0384166000908152601160205260409020614003615b9f565b50604080516020810190915281546001600160e01b03168152614024615b9f565b5060408051602080820183526001600160a01b03808a16600090815260138352848120918a16808252828452948120805485528651959091529152919091558051156125b457614072615b9f565b61407c83836157d7565b9050600061410b896001600160a01b03166395dd91938a6040518263ffffffff1660e01b815260040180826001600160a01b03166001600160a01b0316815260200191505060206040518083038186803b1580156140d957600080fd5b505afa1580156140ed573d6000803e3d6000fd5b505050506040513d602081101561410357600080fd5b505188615670565b9050600061411982846157fc565b6001600160a01b038a16600090815260146020526040812054919250906141409083614fb7565b90506141618a828a6141595766038d7ea4c6800061415c565b60005b61582b565b6001600160a01b03808c1660008181526014602090815260409182902094909455895181518781529485015280519193928f16927f1fc3ecc087d8d2d15e23d0032af5a47059c3892d003d8e139fdcb6bb327c99a6929081900390910190a35050505050505050505050565b600080546001600160a01b03163314806141f157506002546001600160a01b031633145b905090565b600080614201612b1f565b604080516370a0823160e01b815230600482015290519192506000916001600160a01b038416916370a08231916024808301926020929190829003018186803b15801561424d57600080fd5b505afa158015614261573d6000803e3d6000fd5b505050506040513d602081101561427757600080fd5b5051905080841161431a57816001600160a01b031663a9059cbb86866040518363ffffffff1660e01b815260040180836001600160a01b03166001600160a01b0316815260200182815260200192505050602060405180830381600087803b1580156142e257600080fd5b505af11580156142f6573d6000803e3d6000fd5b505050506040513d602081101561430c57600080fd5b506000935061151292505050565b50919392505050565b6060600d80548060200260200160405190810160405280929190818152602001828054801561437b57602002820191906000526020600020905b81546001600160a01b0316815260019091019060200180831161435d575b50939450600093505050505b815181101561444157600082828151811061439e57fe5b602002602001015190506143b0615b9f565b6040518060200160405280836001600160a01b031663aa5af0fd6040518163ffffffff1660e01b815260040160206040518083038186803b1580156143f457600080fd5b505afa158015614408573d6000803e3d6000fd5b505050506040513d602081101561441e57600080fd5b50519052905061442d82614a20565b6144378282613d5b565b5050600101614387565b5061444a615b9f565b6040518060200160405280600081525090506060825160405190808252806020026020018201604052801561449957816020015b614486615b9f565b81526020019060019003908161447e5790505b50905060005b835181101561461f5760008482815181106144b657fe5b6020908102919091018101516001600160a01b0381166000908152600990925260409091206003015490915060ff1615614616576144f2615b9f565b60408051602080820180845260045463fc57d4df60e01b9091526001600160a01b03868116602485015293519293849391169163fc57d4df916044808601929190818703018186803b15801561454757600080fd5b505afa15801561455b573d6000803e3d6000fd5b505050506040513d602081101561457157600080fd5b50519052905061457f615b9f565b6145ed82846001600160a01b03166347bd37186040518163ffffffff1660e01b815260040160206040518083038186803b1580156145bc57600080fd5b505afa1580156145d0573d6000803e3d6000fd5b505050506040513d60208110156145e657600080fd5b5051615970565b9050808585815181106145fc57fe5b602002602001018190525061461186826156c3565b955050505b5060010161449f565b5060005b8351811015611e5a576000600d828154811061463b57fe5b600091825260208220015485516001600160a01b039091169250614660576000614688565b614688600e5461468386868151811061467557fe5b6020026020010151886152ac565b615991565b6001600160a01b0383166000818152600f60209081526040918290208490558151848152915193945091927f2ab93f65628379309f36cb125e90d7c902454a545c4f8b8cb0794af75c24b807929181900390910190a25050600101614623565b60008060006146f5615bd6565b6001600160a01b0388166000908152600860209081526040808320805482518185028101850190935280835260609383018282801561475d57602002820191906000526020600020905b81546001600160a01b0316815260019091019060200180831161473f575b50939450600093505050505b81518110156149e157600082828151811061478057fe5b60200260200101519050806001600160a01b031663c37f68e28d6040518263ffffffff1660e01b815260040180826001600160a01b03166001600160a01b0316815260200191505060806040518083038186803b1580156147e057600080fd5b505afa1580156147f4573d6000803e3d6000fd5b505050506040513d608081101561480a57600080fd5b508051602082015160408084015160609485015160808b015293890193909352918701919091529350831561484f5750600f965060009550859450611efd9350505050565b60408051602080820183526001600160a01b0380851660008181526009845285902060010154845260c08a01939093528351808301855260808a0151815260e08a015260048054855163fc57d4df60e01b815291820194909452935192169263fc57d4df9260248083019392829003018186803b1580156148cf57600080fd5b505afa1580156148e3573d6000803e3d6000fd5b505050506040513d60208110156148f957600080fd5b505160a0860181905261491c5750600d965060009550859450611efd9350505050565b604080516020810190915260a0860151815261010086015260c085015160e08601516149569161494b9161526d565b86610100015161526d565b6101208601819052604086015186516149709291906159aa565b85526101008501516060860151602087015161498d9291906159aa565b60208601526001600160a01b03818116908c1614156149d8576149ba8561012001518b87602001516159aa565b602086018190526101008601516149d2918b906159aa565b60208601525b50600101614769565b50602083015183511115614a075750506020810151905160009450039150829050611efd565b5050805160209091015160009450849350039050611efd565b6001600160a01b0381166000908152601060209081526040808320600f9092528220549091614a4d611e60565b8354909150600090614a6d908390600160e01b900463ffffffff16614f3b565b9050600081118015614a7f5750600083115b15614c45576000856001600160a01b03166318160ddd6040518163ffffffff1660e01b815260040160206040518083038186803b158015614abf57600080fd5b505afa158015614ad3573d6000803e3d6000fd5b505050506040513d6020811015614ae957600080fd5b505190506000614af98386614f75565b9050614b03615b9f565b60008311614b205760405180602001604052806000815250614b2a565b614b2a828461568e565b9050614b34615b9f565b604080516020810190915288546001600160e01b03168152614b5690836156c3565b90506040518060400160405280614ba683600001516040518060400160405280601a81526020017f6e657720696e64657820657863656564732032323420626974730000000000008152506156e8565b6001600160e01b03168152602001614be1886040518060400160405280601c8152602001600080516020615d5f833981519152815250615782565b63ffffffff9081169091526001600160a01b038b166000908152601060209081526040909120835181549490920151909216600160e01b026001600160e01b039182166001600160e01b03199094169390931716919091179055506116eb92505050565b80156116eb57614c78826040518060400160405280601c8152602001600080516020615d5f833981519152815250615782565b845463ffffffff91909116600160e01b026001600160e01b039091161784555050505050565b6001600160a01b0383166000908152601060205260409020614cbe615b9f565b50604080516020810190915281546001600160e01b03168152614cdf615b9f565b5060408051602080820183526001600160a01b03808916600090815260128352848120918916808252828452948120805485528651959091529152919091558051158015614d2d5750815115155b15614d45576ec097ce7bc90715b34b9f100000000081525b614d4d615b9f565b614d5783836157d7565b90506000876001600160a01b03166370a08231886040518263ffffffff1660e01b815260040180826001600160a01b03166001600160a01b0316815260200191505060206040518083038186803b158015614db157600080fd5b505afa158015614dc5573d6000803e3d6000fd5b505050506040513d6020811015614ddb57600080fd5b505190506000614deb82846157fc565b6001600160a01b03891660009081526014602052604081205491925090614e129083614fb7565b9050614e2b89828a6141595766038d7ea4c6800061415c565b6001600160a01b03808b1660008181526014602090815260409182902094909455895181518781529485015280519193928e16927f2caecd17d02f56fa897705dcc740da2d237c373f70686f4e0d9bd3bf0400ea7a929081900390910190a350505050505050505050565b60007f45b96fe442630264581b197e84bbada861235052c5a1aadfff9ea4e40a969aa0836011811115614ec557fe5b836013811115614ed157fe5b604080519283526020830191909152600082820152519081900360600190a1826011811115611acb57fe5b6000806000614f0f8460008060006146e8565b9250925092509193909250565b6000614f26615b9f565b614f308484615970565b90506117c2816159d2565b6000611acb8383604051806040016040528060158152602001747375627472616374696f6e20756e646572666c6f7760581b8152506159e1565b6000611acb83836040518060400160405280601781526020017f6d756c7469706c69636174696f6e206f766572666c6f77000000000000000000815250615a3b565b6000611acb8383604051806040016040528060118152602001706164646974696f6e206f766572666c6f7760781b815250615aba565b60005b600d5481101561507857816001600160a01b0316600d828154811061501157fe5b6000918252602090912001546001600160a01b03161415615070576040805162461bcd60e51b81526020600482015260146024820152731b585c9ad95d08185b1c9958591e48185919195960621b604482015290519081900360640190fd5b600101614ff0565b50600d80546001810182556000919091527fd7b6990105719101dabeb77144f2a3385c8033acd3af97e9423a695e81ad1eb50180546001600160a01b0319166001600160a01b0392909216919091179055565b6001600160a01b03831660009081526009602052604081205460ff166150f2576009611f89565b6001600160a01b038085166000908152600960209081526040808320938716835260029093019052205460ff1661512a576000611f89565b60008061513a85878660006146e8565b9193509091506000905082601181111561515057fe5b1461516a5781601181111561516157fe5b92505050611acb565b80156133a6576004615161565b6001600160a01b0382166000908152600960205260408120805460ff166151a2576009915050611512565b6001600160a01b038316600090815260028201602052604090205460ff161515600114156151d4576000915050611512565b6001600160a01b0380841660008181526002840160209081526040808320805460ff19166001908117909155600883528184208054918201815584529282902090920180549489166001600160a01b031990951685179055815193845283019190915280517f3ab23ab0d51cccc0c3085aec51f99228625aa1a922b3a8ca89a26b0f2027a1a59281900390910190a15060009392505050565b615275615b9f565b6040518060200160405280670de0b6b3a764000061529b86600001518660000151614f75565b816152a257fe5b0490529392505050565b6152b4615b9f565b60405180602001604052806152df6152d88660000151670de0b6b3a7640000614f75565b8551615b0f565b90529392505050565b6001600160a01b0381166000908152600960205260409020805460ff16151560011461535b576040805162461bcd60e51b815260206004820152601960248201527f636f6d70206d61726b6574206973206e6f74206c697374656400000000000000604482015290519081900360640190fd5b600381015460ff16156153b5576040805162461bcd60e51b815260206004820152601960248201527f636f6d70206d61726b657420616c726561647920616464656400000000000000604482015290519081900360640190fd5b60038101805460ff19166001908117909155604080516001600160a01b0385168152602081019290925280517f93c1f3e36ed71139f466a4ce8c9751790e2e33f5afb2df0dcfb3aeabe55d5aa29281900390910190a16001600160a01b0382166000908152601060205260409020546001600160e01b031615801561545d57506001600160a01b038216600090815260106020526040902054600160e01b900463ffffffff16155b1561551a5760405180604001604052806ec097ce7bc90715b34b9f10000000006001600160e01b031681526020016154bf615496611e60565b6040518060400160405280601c8152602001600080516020615d5f833981519152815250615782565b63ffffffff9081169091526001600160a01b0384166000908152601060209081526040909120835181549490920151909216600160e01b026001600160e01b039182166001600160e01b031990941693909317169190911790555b6001600160a01b0382166000908152601160205260409020546001600160e01b031615801561556c57506001600160a01b038216600090815260116020526040902054600160e01b900463ffffffff16155b15611cab5760405180604001604052806ec097ce7bc90715b34b9f10000000006001600160e01b031681526020016155a5615496611e60565b63ffffffff9081169091526001600160a01b0384166000908152601160209081526040909120835181549490920151909216600160e01b026001600160e01b039182166001600160e01b031990941693909317169190911790555050565b5190511090565b60007f45b96fe442630264581b197e84bbada861235052c5a1aadfff9ea4e40a969aa084601181111561563957fe5b84601381111561564557fe5b604080519283526020830191909152818101859052519081900360600190a18360118111156117c257fe5b6000611acb61568784670de0b6b3a7640000614f75565b8351615b0f565b615696615b9f565b60405180602001604052806152df6156bd866ec097ce7bc90715b34b9f1000000000614f75565b85615b0f565b6156cb615b9f565b60405180602001604052806152df85600001518560000151614fb7565b600081600160e01b841061577a5760405162461bcd60e51b81526004018080602001828103825283818151815260200191508051906020019080838360005b8381101561573f578181015183820152602001615727565b50505050905090810190601f16801561576c5780820380516001836020036101000a031916815260200191505b509250505060405180910390fd5b509192915050565b600081600160201b841061577a5760405162461bcd60e51b815260206004820181815283516024840152835190928392604490910191908501908083836000831561573f578181015183820152602001615727565b6157df615b9f565b60405180602001604052806152df85600001518560000151614f3b565b60006ec097ce7bc90715b34b9f100000000061581c848460000151614f75565b8161582357fe5b049392505050565b600081831015801561583d5750600083115b1561596857600061584c612b1f565b604080516370a0823160e01b815230600482015290519192506000916001600160a01b038416916370a08231916024808301926020929190829003018186803b15801561589857600080fd5b505afa1580156158ac573d6000803e3d6000fd5b505050506040513d60208110156158c257600080fd5b5051905080851161596557816001600160a01b031663a9059cbb87876040518363ffffffff1660e01b815260040180836001600160a01b03166001600160a01b0316815260200182815260200192505050602060405180830381600087803b15801561592d57600080fd5b505af1158015615941573d6000803e3d6000fd5b505050506040513d602081101561595757600080fd5b5060009350611acb92505050565b50505b509092915050565b615978615b9f565b60405180602001604052806152df856000015185614f75565b6000670de0b6b3a764000061581c848460000151614f75565b60006159b4615b9f565b6159be8585615970565b90506124246159cc826159d2565b84614fb7565b51670de0b6b3a7640000900490565b60008184841115615a335760405162461bcd60e51b815260206004820181815283516024840152835190928392604490910191908501908083836000831561573f578181015183820152602001615727565b505050900390565b6000831580615a48575082155b15615a5557506000611acb565b83830283858281615a6257fe5b04148390615ab15760405162461bcd60e51b815260206004820181815283516024840152835190928392604490910191908501908083836000831561573f578181015183820152602001615727565b50949350505050565b60008383018285821015615ab15760405162461bcd60e51b815260206004820181815283516024840152835190928392604490910191908501908083836000831561573f578181015183820152602001615727565b6000611acb83836040518060400160405280600e81526020016d646976696465206279207a65726f60901b81525060008183615b8c5760405162461bcd60e51b815260206004820181815283516024840152835190928392604490910191908501908083836000831561573f578181015183820152602001615727565b50828481615b9657fe5b04949350505050565b6040518060200160405280600081525090565b81548183558181111561157557600083815260209020611575918101908301615c40565b604051806101400160405280600081526020016000815260200160008152602001600081526020016000815260200160008152602001615c14615b9f565b8152602001615c21615b9f565b8152602001615c2e615b9f565b8152602001615c3b615b9f565b905290565b611e6291905b80821115615c5a5760008155600101615c46565b509056fe63616e6e6f742070617573652061206d61726b65742074686174206973206e6f74206c69737465646f6e6c792065787465726e616c6c79206f776e6564206163636f756e7473206d61792072656672657368207370656564736f6e6c7920706175736520677561726469616e20616e642061646d696e2063616e2070617573656f6e6c792061646d696e2063616e2073657420626f72726f772063617020677561726469616e6f6e6c792061646d696e206f7220626f72726f772063617020677561726469616e2063616e2073657420626f72726f772063617073657869744d61726b65743a206765744163636f756e74536e617073686f74206661696c6564626c6f636b206e756d62657220657863656564732033322062697473000000006f6e6c7920756e6974726f6c6c65722061646d696e2063616e206368616e676520627261696e73a265627a7a723158209ab659d2249f439257830fbdbee3100689e85d27010a8dea8da9b3effb3cd28464736f6c63430005100032",
    "linkReferences": {}
  },
  "methodIdentifiers": {
    "_addCompMarkets(address[])": "ce485c5e",
    "_become(address)": "1d504dc6",
    "_borrowGuardianPaused()": "e6653f3d",
    "_dropCompMarket(address)": "3aa729b4",
    "_grantComp(address,uint256)": "27efe3cb",
    "_mintGuardianPaused()": "3c94786f",
    "_setBorrowCapGuardian(address)": "391957d7",
    "_setBorrowPaused(address,bool)": "18c882a5",
    "_setCloseFactor(uint256)": "317b0b77",
    "_setCollateralFactor(address,uint256)": "e4028eee",
    "_setCompRate(uint256)": "6a491112",
    "_setContributorCompSpeed(address,uint256)": "598ee1cb",
    "_setLiquidationIncentive(uint256)": "4fd42e17",
    "_setMarketBorrowCaps(address[],uint256[])": "607ef6c1",
    "_setMintPaused(address,bool)": "3bcf7ec1",
    "_setPauseGuardian(address)": "5f5af1aa",
    "_setPriceOracle(address)": "55ee1fe1",
    "_setSeizePaused(bool)": "2d70db78",
    "_setTransferPaused(bool)": "8ebf6364",
    "_supportMarket(address)": "a76b3fda",
    "accountAssets(address,uint256)": "dce15449",
    "admin()": "f851a440",
    "allMarkets(uint256)": "52d84d1e",
    "borrowAllowed(address,address,uint256)": "da3d454c",
    "borrowCapGuardian()": "21af4569",
    "borrowCaps(address)": "4a584432",
    "borrowGuardianPaused(address)": "6d154ea5",
    "borrowVerify(address,address,uint256)": "5c778605",
    "checkMembership(address,address)": "929fe9a1",
    "claimComp(address)": "e9af0292",
    "claimComp(address,address[])": "1c3db2e0",
    "claimComp(address[],address[],bool,bool)": "6810dfa6",
    "closeFactorMantissa()": "e8755446",
    "compAccrued(address)": "cc7ebdc4",
    "compBorrowState(address)": "8c57804e",
    "compBorrowerIndex(address,address)": "ca0af043",
    "compClaimThreshold()": "747026c9",
    "compContributorSpeeds(address)": "986ab838",
    "compInitialIndex()": "a7f0e231",
    "compRate()": "aa900754",
    "compSpeeds(address)": "1d7b33d7",
    "compSupplierIndex(address,address)": "b21be7fd",
    "compSupplyState(address)": "6b79c38d",
    "comptrollerImplementation()": "bb82aa5e",
    "enterMarkets(address[])": "c2998238",
    "exitMarket(address)": "ede4edd0",
    "getAccountLiquidity(address)": "5ec88c79",
    "getAllMarkets()": "b0772d0b",
    "getAssetsIn(address)": "abfceffc",
    "getBlockNumber()": "42cbb15c",
    "getCompAddress()": "9d1b5a0a",
    "getHypotheticalAccountLiquidity(address,address,uint256,uint256)": "4e79238f",
    "isComptroller()": "007e3dd2",
    "lastContributorBlock(address)": "bea6b8b8",
    "liquidateBorrowAllowed(address,address,address,address,uint256)": "5fc7e71e",
    "liquidateBorrowVerify(address,address,address,address,uint256,uint256)": "47ef3b3b",
    "liquidateCalculateSeizeTokens(address,address,uint256)": "c488847b",
    "liquidationIncentiveMantissa()": "4ada90af",
    "markets(address)": "8e8f294b",
    "maxAssets()": "94b2294b",
    "mintAllowed(address,address,uint256)": "4ef4c3e1",
    "mintGuardianPaused(address)": "731f0c2b",
    "mintVerify(address,address,uint256,uint256)": "41c728b9",
    "oracle()": "7dc0d1d0",
    "pauseGuardian()": "24a3d622",
    "pendingAdmin()": "26782247",
    "pendingComptrollerImplementation()": "dcfbc0c7",
    "redeemAllowed(address,address,uint256)": "eabe7d91",
    "redeemVerify(address,address,uint256,uint256)": "51dff989",
    "refreshCompSpeeds()": "4d8e5037",
    "repayBorrowAllowed(address,address,address,uint256)": "24008a62",
    "repayBorrowVerify(address,address,address,uint256,uint256)": "1ededc91",
    "seizeAllowed(address,address,address,address,uint256)": "d02f7351",
    "seizeGuardianPaused()": "ac0b0bb7",
    "seizeVerify(address,address,address,address,uint256)": "6d35bf91",
    "transferAllowed(address,address,address,uint256)": "bdcdc258",
    "transferGuardianPaused()": "87f76303",
    "transferVerify(address,address,address,uint256)": "6a56947e",
    "updateContributorRewards(address)": "741b2525"
  },
  "id": 8
}